:1000000000000120BD020000E5020000E702000040
:10001000E9020000EB020000ED0200000000000019
:100020000000000000000000000000007D0400004F
:10003000F1020000000000009D040000F502000035
:100040002D210000F7020000F7020000F702000077
:10005000F7020000F70200009D210000F7020000F7
:10006000F7020000F7020000F7020000F7020000AC
:10007000F7020000F7020000F7020000F70200009C
:10008000F70200009D050000F7020000F7020000E3
:10009000F7020000F7020000F7020000F70200007C
:1000A000F7020000F7020000F7020000F70200006C
:1000B000F7020000F702000000000000000000004E
:1000C000F7020000F7020000F7020000F70200004C
:1000D000F7020000F7020000F70200000000000035
:1000E0000000000000000000000000000000000010
:1000F0000000000000000000000000000000000000
:1001000000000000000000000000000000000000EF
:1001100000000000000000000000000000000000DF
:1001200000000000000000000000000000000000CF
:1001300000000000000000000000000000000000BF
:1001400000000000000000000000000000000000AF
:10015000000000000000000000000000000000009F
:10016000000000000000000000000000000000008F
:10017000000000000000000000000000000000007F
:10018000000000000000000000000000000000006F
:10019000000000000000000000000000000000005F
:1001A000000000000000000000000000000000004F
:1001B000000000000000000000000000000000003F
:1001C000000000000000000000000000000000002F
:1001D000000000000000000000000000000000001F
:1001E000000000000000000000000000000000000F
:1001F00000000000000000000000000000000000FF
:1002000010B5054C237833B9044B13B10448AFF350
:1002100000800123237010BD70000020000000004A
:10022000542B000008B5034B1BB103490348AFF33F
:10023000008008BD0000000074000020542B000066
:10024000A3F5803A704700BF174B002B08BF134B34
:100250009D46FFF7F5FF00218B460F461348144AD1
:10026000121A02F03DFC0E4B002B00D098470D4BAC
:10027000002B00D098470020002104000D000D48FD
:10028000002802D00C48AFF3008002F0F7FB2000FA
:10029000290002F0B1F902F0DDFB00BF0000080008
:1002A000000000000000000000000120700000209D
:1002B0004412002000000000000000000649074A28
:1002C000074B9B1A03DD043BC858D050FBDC02F0FF
:1002D000D5F9FFF7B9FF0000602B000000000020F7
:1002E00070000020FEE7FEE7FEE7FEE7FEE7FEE720
:1002F000FEE7FEE7FEE7FEE7074B4FF0A041185C84
:10030000D1F804350122824022EA03001340C1F8EB
:100310000805C1F80C3570470C2B0000C20710B45B
:100320001AD54FF0A04303224FF08071C3F8602725
:100330004FF00044C3F87C27C3F84427C3F8502784
:10034000C3F808154FF480124FF40031C3F8084584
:10035000C3F80815C3F8082583070AD54FF0A04352
:100360000C22C3F81827C3F81C27C3F84027C3F88A
:100370004C275DF8044B704738B5430704461CBF53
:1003800020F00704083400F0D7FF0E4A13689BB131
:100390000D4A156840F6F7712C448C4207D8A542E7
:1003A00005D21D44146001F077F8284638BD0025B9
:1003B00001F072F8284638BD044B23F007031360A0
:1003C000E6E700BF8C00002090100020980000207D
:1003D000704700BF00F108034FF0FF310022C0E971
:1003E0000131C0E903330260704700BF002303619D
:1003F000704700BF43684B609A688A60516099609B
:100400000861036801330360704700BF30B40D68B2
:100410006B1C10D000F108031C465B681A68AA42E6
:10042000FAD94B6099608C606160086103680133A0
:1004300030BC0360704704696368F2E7D0E90112D9
:1004400003698A60416851605A68824204BF8268C9
:100450005A60002202611A68013A1A6018687047EF
:100460000548006880F3088862B661B6BFF34F8F15
:10047000BFF36F8F00DF00BF00000000064B19685C
:100480000868B0E8F04F80F30988BFF36F8F4FF032
:10049000000080F311887047A8100020EFF3098056
:1004A000BFF36F8F144B1A681EF0100F08BF20EDBA
:1004B000108A20E9F04F10604DF8043D4FF04000E5
:1004C00080F31188BFF34F8FBFF36F8F01F048F9AE
:1004D0004FF0000080F3118808BC19680868B0E884
:1004E000F04F1EF0100F08BFB0EC108A80F309889F
:1004F000BFF36F8F704700BFA8100020402383F325
:100500001188FEE710B44FF08073064C40F8043CAD
:100510006FF0020340E9034140E9093244385DF8D5
:10052000044B7047FD0400000F4C08B5E02384F82D
:10053000223000F075F80D4B00221A60D4F8883094
:100540000B4A43F47003C4F88830536B43F04043C4
:100550005363236943F010032361FFF781FF4023B6
:1005600083F31188FEE700BF00ED00E09410002047
:1005700000EF00E0402383F31188024A136801333F
:100580001360704794100020034A1368013B136006
:100590000BB983F3118870479410002070B51E4B7F
:1005A0000022C3F8402182B0D3F840110191019993
:1005B000EFF31186402181F31188D3F80445C3F885
:1005C0000021D3F800310093009B00F0BDFE201AFB
:1005D00020F07F4323F0010320F07F459BB96C1E80
:1005E0006DB1002500F0BEFE23460543013C002B03
:1005F000F8D125B1094B4FF080525A6040BF86F3C5
:10060000118802B070BD01F02FFA0228E7D000F087
:10061000A9FE0546EDE700BF0010014000ED00E037
:1006200010B5002001F006FD094B0A4901221F24E4
:10063000C3F808450220C3F804239A601A60E02238
:10064000C3F8440381F811234FF400330B6010BD4D
:100650000010014000E100E070B5054684B072B6BC
:10066000354CD4F8046501F0E3F9002846D033484E
:10067000A84228BF2846331823F07F430122C4F83C
:100680000823C4F840350023C4F84031D4F8403181
:100690000193019B4FF480338446C4F80433BFF3C5
:1006A0004F8F75B3264B20BFD3F80011D3F8042128
:1006B0000A43F8D0204A4FF48031C2F808130021D1
:1006C000C2F84011D2F8400103900398C2F800111B
:1006D000D2F80011029101210298C2F80413D2F855
:1006E0000425921B22F07F4060454FF4003228BF62
:1006F0006046C3F8802108B100F02CFE62B604B059
:1007000070BDC4F80833C4F84051D4F840310393A5
:10071000039BC4F80051D4F800310293084B0299AE
:10072000C4F804234FF40031D4F80425C3F8801131
:1007300062B604B070BD00BF00100140FDFFFF00B5
:1007400000E100E070B506460D4651B100FB01F036
:100750004830FFF711FE044658B300F14803036028
:1007600005E04820FFF708FE044610B32460C4E902
:100770000F65FFF7FFFED4E90F23216803FB02F2A8
:10078000D31A0A440B4462600020FF22A063C4E92C
:10079000021384F8442004F1100084F84520FFF788
:1007A00019FE04F12400FFF715FEFFF7EDFE2046C9
:1007B00070BD0024204670BD2DE9F047044684B08A
:1007C0001F460192884600F12406FFF7D3FEA26B74
:1007D000E36BDFF830939A424FF0000A7AD3022F8E
:1007E00000F0E480019D002D00F00D8102ADBAF112
:1007F000000F00F0D780FFF7C7FE00F09DFDFFF768
:10080000B9FE94F84430FF2B04BF002384F8443031
:1008100094F84530FF2B04BF002384F84530FFF7E0
:10082000B3FE01A9284601F0C9F8002840F0F18084
:10083000FFF7A0FEA26BE36B9A425FD0FFF7A4FE26
:10084000FFF798FE94F8452055B2002D04DC11E026
:100850006A1ED3B255B26BB1636A304653B101F030
:100860004FF80028F4D001F0DDF86A1ED3B255B27B
:10087000002BF1D1FF2384F84530FFF785FEFFF709
:1008800079FE94F8442055B2002D14DD04F1100ACD
:1008900003E06A1ED3B255B26BB12369504653B11F
:1008A00001F02EF80028F4D001F0BCF86A1ED3B293
:1008B00055B2002BF1D1FF2384F84430FFF764FEDA
:1008C00000F0EAFDFFF756FEA26BE36B9A424FF091
:1008D000010A84D2226CA56B002A40F0E2802668CF
:1008E000002E00F0F4800135A563636A002B79D1F6
:1008F000FFF74AFE012004B0BDE8F08704F1100ABA
:10090000FFF742FE0199504600F060FFFFF732FE0C
:1009100094F845305DB2002D04DC11E06B1EDAB2B4
:100920005DB26AB1636A304653B100F0E9FF002856
:10093000F4D001F077F86B1EDAB25DB2002AF1D183
:10094000FF2384F84530FFF71FFEFFF713FE94F8EE
:1009500044305DB2002D04DC11E06B1EDAB25DB2F2
:100960006AB12369504653B100F0CAFF0028F4D0A1
:1009700001F058F86B1EDAB25DB2002AF1D1FF2304
:1009800084F84430FFF700FE00F086FD002899D17E
:100990004FF08053C9F8043040BFBFF34F8FBFF30F
:1009A0006F8F8FE7284600F0FDFF24E7226CA56BD0
:1009B000002A94D04146E06802F084F8226CE36893
:1009C00051429B1A2268E360934204D263680B444D
:1009D000E360022F87D1002D86D10123A363636AD0
:1009E000002B85D004F1240000F08AFF00283FF49A
:1009F0007FAF444B4FF080525A6040BFBFF34F8FE0
:100A0000BFF36F8F74E7FFF7BFFD284604B0BDE862
:100A1000F087FFF7AFFD94F845305DB2002D14DD8F
:100A200004F1240603E06B1EDAB25DB26AB1636AB8
:100A3000304653B100F064FF0028F4D000F0F2FF1C
:100A40006B1EDAB25DB2002AF1D1FF2384F8453083
:100A5000FFF79AFDFFF78EFD94F844305DB2002D4C
:100A600014DD04F1100603E06B1EDAB25DB26AB168
:100A70002369304653B100F043FF0028F4D000F062
:100A8000D1FF6B1EDAB25DB2002AF1D1FF2384F8E8
:100A90004430FFF779FD00F0FFFC002004B0BDE812
:100AA000F08707BB4146A06802F00CF8A368216CF0
:100AB00062680B449342A360FFF415AF0135A56350
:100AC000636A2268A260002B3FF412AF8AE7606875
:100AD000013500F0D9FFA563636A6660002B81D100
:100AE000002886D104E74146E06801F0EBFF226C64
:100AF000E36851429B1A2268E3609342BFF469AFF6
:100B000064E700BF00ED00E02DE9F043044683B048
:100B100016469946EFF31188402282F31188806BC4
:100B2000E26B904223D3022B05D0002088F311887A
:100B300003B0BDE8F08394F84550226CA76B6DB20A
:100B4000DAB1E06801F0BEFF226CE1682068891A22
:100B50008142E160C2F1000205D261680A44E260AC
:100B6000B9F1020F0CD1012F38BF012709E094F829
:100B70004550226CA76B6DB282B92368002B2CD034
:100B800001376B1CA7631AD001356DB284F845504C
:100B9000012088F3118803B0BDE8F08323BBA0686F
:100BA00001F090FFA368226C13446268A360934233
:100BB00024BF2368A36001376B1CA763E4D1636A79
:100BC000002BE5D004F1240000F09AFE0028DFD0CD
:100BD000002EDDD001203060A8E76068019300F0AE
:100BE00053FF019B6360CBE7E06801F06BFF226C71
:100BF000E1682068891A8142E160C2F10002AFD247
:100C0000ABE700BF2DE9F043044685B00F460192E3
:100C1000FFF7B0FCA56B002D40F01D81019B002B60
:100C200000F0CE8002A800F0BDFEDFF8788204F16B
:100C30002406FFF7A9FC00F07FFBFFF79BFC94F86C
:100C40004430FF2B04BF002384F8443094F845302F
:100C5000FF2B04BF002384F84530FFF795FC01A962
:100C600002A800F0ABFE002859D1FFF783FCA36B6C
:100C7000002B40F0AB80FFF787FC0199304600F075
:100C8000A5FDFFF777FC94F845305DB2002D04DC3C
:100C900011E06B1EDAB25DB26AB1636A304653B1DD
:100CA00000F02EFE0028F4D000F0BCFE6B1EDAB27D
:100CB0005DB2002AF1D1FF2384F84530FFF764FCD0
:100CC000FFF758FC94F844305DB2002D14DD04F1B8
:100CD000100903E06B1EDAB25DB26AB123694846BF
:100CE00053B100F00DFE0028F4D000F09BFE6B1E07
:100CF000DAB25DB2002AF1D1FF2384F84430FFF765
:100D000043FC00F0C9FB002851D14FF08053C8F8D4
:100D1000043040BFBFF34F8FBFF36F8F47E0FFF743
:100D200029FC94F845305DB2002D04DC11E06B1E07
:100D3000DAB25DB26AB1636A304653B100F0E0FDE9
:100D40000028F4D000F06EFE6B1EDAB25DB2002A0D
:100D5000F1D1FF2384F84530FFF716FCFFF70AFCBA
:100D600094F844305DB2002D14DD04F1100903E065
:100D70006B1EDAB25DB26AB12369484653B100F026
:100D8000BFFD0028F4D000F04DFE6B1EDAB25DB25C
:100D9000002AF1D1FF2384F84430FFF7F5FB00F07F
:100DA0007BFBFFF7E7FBA36B53B1FFF7EDFBFFF70F
:100DB000E1FBA56B002D4ED1019B002B7FF439AFD9
:100DC000FFF7E2FB002005B0BDE8F083FFF7DCFB96
:100DD000FFF7D0FB94F845305DB2002D04DC11E044
:100DE0006B1EDAB25DB26AB1636A304653B100F08D
:100DF00087FD0028F4D000F015FE6B1EDAB25DB25C
:100E0000002AF1D1FF2384F84530FFF7BDFBFFF73F
:100E1000B1FB94F844305DB2002D14DD04F11009EB
:100E200003E06B1EDAB25DB26AB12369484653B182
:100E300000F066FD0028F4D000F0F4FD6B1EDAB27D
:100E40005DB2002AF1D1FF2384F84430FFF79CFB08
:100E500000F022FBABE7226C52B1E16863681144F9
:100E60009942E16024BF2168E160384601F02AFE22
:100E7000013DA56323692BB9FFF786FB012005B06F
:100E8000BDE8F08304F1100000F03AFD0028F3D033
:100E9000044B4FF080525A6040BFBFF34F8FBFF3F7
:100EA0006F8FE9E700ED00E0064B1A681AB19A6807
:100EB00002B17047012203EBC20C43F83210CCF8A8
:100EC0000400F6E79810002070B505460E4614465B
:100ED000FFF750FB95F84430FF2B04BF002385F843
:100EE000443095F84530FF2B04BF002385F845308A
:100EF000FFF74AFBAB6B002B43D0FFF73BFB95F8AA
:100F000045305CB2002C14DD05F1240603E0631EBD
:100F1000DAB25CB26AB16B6A304653B100F0F0FCF1
:100F20000028F4D000F07EFD631EDAB25CB2002A25
:100F3000F1D1FF2385F84530FFF726FBFFF71AFBB9
:100F400095F844305CB2002C14DD05F1100603E086
:100F5000631EDAB25CB26AB12B69304653B100F05D
:100F6000CFFC0028F4D000F05DFD631EDAB25CB265
:100F7000002AF1D1FF2385F84430BDE87040FFF727
:100F800003BB2246314605F1240000F067FCB4E7BC
:100F90002DE9F84F9600804630460D469946FFF7FA
:100FA000EBF9002800F0858007464820FFF7E4F9B8
:100FB0000446002800F08880076332463846A521A1
:100FC00001F08EFD2B7884F834302B78D4F830B0D3
:100FD00063B16B7884F835306B783BB1AB7884F8CB
:100FE0003630AB7813B1EB7884F837300A9D022D98
:100FF00028BF02254FF0000A271DE562A563384689
:1010000084F837A0C4F83CA0043EFFF7EFF95E4433
:1010100004F11800C5F10305FFF7E8F9C4F840A092
:10102000A56184F844A0246164624A46414626F0E2
:101030000700FFF767FA0B9B206003B11C60FFF706
:1010400099FA3C4A3C4E1368013313603368002B15
:1010500043D0DFF81881D8F8003073B3E36A37481B
:1010600002683946364F0132D7F800C002600125C8
:10107000344805FA03F203EB830342EA0C0200EB67
:1010800083003A60FFF7B6F9FFF77EFAD8F8003030
:1010900003B33268E36AD26A9A421BD22A4B4FF0FA
:1010A00080525A6040BFBFF34F8FBFF36F8F284607
:1010B00001E04FF0FF30BDE8F88F3368DA6AE36A89
:1010C0009A4298BF3460CAE73846FFF781F94FF07B
:1010D000FF30F0E72846BDE8F88F34601368012B35
:1010E00003D0E36ADFF88480B9E71648DFF8809020
:1010F000164DDFF87880FFF76DF91548FFF76AF9AC
:101100001448FFF767F94846FFF764F92846FFF7E8
:1011100061F91148FFF75EF91048FFF75BF91048D5
:10112000FFF758F90F4BC3F800900F4B1D60E36AAF
:1011300095E700BFF0100020A8100020001100204B
:1011400004110020B410002000ED00E01C1100206C
:10115000C8100020DC1000203C1100206811002085
:1011600054110020AC100020B010002050110020BD
:10117000081100202DE9F843F020FFF7FDF80028C2
:1011800075D005464820FFF7F7F80446002870D0D0
:10119000F022A5210563284601F0A2FC0025514B51
:1011A0006363271DC4E90E55266BE5623846FFF7D9
:1011B0001DF904F11800FFF719F9032306F1EC00FB
:1011C0002A4625644849A36184F844502461646236
:1011D00020F00700FFF796F9444B20601C60FFF7F2
:1011E000C9F9434A434D1368013313602B68002B40
:1011F0004BD0414E3368002B40D0E36A3F48026831
:1012000039463F4F0132D7F800C002603D48012205
:101210009A4003EB830342EA0C0200EB83003A603E
:10122000FFF7E8F8FFF7B0F933686BB12A68E36AB3
:10123000D26A9A4208D2344B4FF080525A6040BF73
:10124000BFF34F8FBFF36F8F00F0BCFD01280ED1AD
:10125000402383F311882D4A2D4B4FF0FF3111604D
:10126000002230601A60BDE8F843FFF75DB9BDE8C1
:10127000F8832846BDE8F843FFF7AAB82B68DA6A76
:10128000E36A9A4298BF2C60B8E72C601368012B80
:1012900002D0E36A184EB1E71A48DFF89490DFF8FD
:1012A0009480154EFFF796F81A48FFF793F81A48FE
:1012B000FFF790F84846FFF78DF84046FFF78AF8A9
:1012C0001648FFF787F81648FFF784F81548FFF728
:1012D00081F8154BC3F80090144BC3F80080E36A03
:1012E0008CE700BF49444C0061160000301100201B
:1012F000F0100020A8100020501100200011002044
:1013000004110020B410002000ED00E03411002092
:101310007C110020C8100020DC1000203C110020AF
:101320006811002054110020AC100020B0100020E3
:10133000081100201C110020024A136801331360B9
:10134000704700BFFC100020014B1868704700BFB9
:101350007C110020024A136818441060704700BFD7
:101360007C1100202DE9F04F404B1B6883B0002B0F
:1013700047D13F4B1E6801361E60002E4FD0DFF86C
:1013800008B1DBF80030B34260D83A4F3B681D68C3
:10139000002D66D0DFF8F480DFF8F4A0DFF8F490D9
:1013A000002523E00191FFF749F8A36A019904F1B0
:1013B000180013B1FFF742F80199E06AD8F800204D
:1013C0000123834000EB800013430AEB8000C8F840
:1013D0000030FFF70FF8D9F800203B68E16AD26AC5
:1013E0001B68914228BF0125002B3AD03B68DB687F
:1013F000DC686368211D9E420846D3D2CBF80030DA
:1014000004E01D4A13680133002513601B4B1B6861
:10141000002B0CBF2846012003B0BDE8F08F154B10
:10142000174A186811681960164910600A68013275
:101430000A601A6812685AB9DFF84CB04FF0FF33EF
:10144000CBF80030DBF80030B3429ED90025DDE751
:101450001B68DFF834B0DB68DB685B68CBF8003012
:101460008FE74FF0FF33CBF80030CFE7FC100020C0
:101470007C110020AC100020F8100020801100200A
:10148000B010002038110020341100200411002079
:10149000B4100020A81000202DE9F04F83B0FFF712
:1014A00069F83D4B1A68013A1A601B68002B59D144
:1014B0003A4B1B68002B55D0DFF8FCA0DAF800305F
:1014C000002B65D0364DDFF8F480364FDFF8F09012
:1014D0000126DAF80C30DC6804F1040B04F1180082
:1014E000FEF7ACFF5846FEF7A9FFE06A2A6806FA45
:1014F00000F300EB80001343594608EB80002B609B
:10150000FEF778FF3B68E26ADB6A9A4232D3C9F899
:101510000060DAF80030002BDBD1234B1A68126828
:10152000002A30D01A68214BD268D26852681A60FB
:101530001F4E346844B10125FFF714FF08B1C9F804
:101540000050013CF8D13460D9F8003053B1194B48
:101550004FF080525A6040BFBFF34F8FBFF36F8F81
:10156000012000E000200190FFF70EF8019803B081
:10157000BDE8F08FDAF80030002BAAD10A4B1A68C8
:101580001268002ACED1094B4FF0FF321A60CFE724
:10159000DFF82C90CCE700BFFC100020F0100020FA
:1015A00004110020A8100020AC10002034110020ED
:1015B000F810002000ED00E03C110020B4100020E5
:1015C0008011002070B548B91D4B4FF080525A6011
:1015D00040BFBFF34F8FBFF36F8F70BD194A1A49D9
:1015E00013681A4D013313600E68044628680430EE
:1015F000FEF724FF40B92B681549D86A0B68012211
:10160000824023EA02030B602B68A4195C600FD2AE
:10161000104B186829680431FEF7F8FE0E4B1A6863
:10162000944238BF1C60FFF737FF0028CCD070BD54
:101630000A4B186829680431FEF7E8FEF3E700BF9B
:1016400000ED00E0FC1000207C110020A81000201C
:1016500004110020AC10002034110020B010002034
:101660002DE9F84F344C354E354DDFF8E880DFF882
:10167000E890DFF8E8B04FF0805A14E0FEF77AFF08
:10168000F368DF68381DFEF7D9FE2B68013B2B603D
:101690002368013B2360FEF777FF386BFEF798FE67
:1016A0003846FEF795FE2368002BE7D1254B1B68D3
:1016B000012B06D9CBF804A040BFBFF34F8FBFF377
:1016C0006F8FD8F80030012BD9F80030DB6A04D9CD
:1016D000002BE8D11B4B1B68E5E7002BE3D1194B2E
:1016E0001B68012BDFD8184B184A1B6812689B1A1D
:1016F000012BD8D9164A136801331360D8F800308B
:10170000012BD9F80030DB6A05D90BB90D4B1B68EA
:10171000FFF7C2FEC7E7002BFAD10A4B1B68012B6B
:10172000F6D8094B1868094B1B68C01A0128EFD975
:10173000FEF792FFECE700BFF410002068110020D4
:10174000F0100020B4100020341100207C11002083
:10175000FC10002004110020A810002000ED00E083
:10176000154B1B681BB1154B01221A6070471349BA
:10177000134A0B601368C3B1B3FA83F3C3F11F03B9
:1017800003EB830189009A0008310E48134400EBF3
:10179000830301445A6852685A608A4204BF5268FF
:1017A0005A60094BD2681A6070474FF0FF336FF0F0
:1017B0000B016FF00302E8E7FC100020801100200D
:1017C00004110020B4100020A810002070B51C4D9A
:1017D0002B680C4603F11801FEF718FE194B1E6822
:1017E00028680430FEF72AFE40B92B681649D86AEB
:1017F0000B680122824023EA02030B60631C17D0AE
:101800002B68A4195C6007D3104B18682968BDE8E1
:1018100070400431FEF7FABD0D4B18682968043199
:10182000FEF7F4FD0B4B1A68944238BF1C6070BD84
:1018300029680948BDE870400431FEF7DBBD00BFF0
:10184000A81000207C11002004110020B0100020FE
:10185000AC1000203411002054110020F8B5214DA7
:101860002B680C4603F118011646FEF7C3FD1E4B0C
:101870001F682868043036BBFEF7E0FD58B92B68B6
:101880001A49DA6A012303FA02F20B6823EA020317
:101890000B60631C1DD02B683C195C600BD2144B91
:1018A000186829680431FEF7B1FD124B1A6894429A
:1018B00000D21C60F8BD104B18682968BDE8F840DC
:1018C0000431FEF7A3BDFEF7B9FD20B94FF0FF3498
:1018D000D5E7002EDFD029680848BDE8F84004317C
:1018E000FEF788BDA81000207C1100200411002004
:1018F000AC10002034110020B01000205411002042
:1019000070B5C368DC6804F1180582B02846FEF79C
:1019100095FD1C4B1B6843BB211D1B4D01910846C7
:10192000FEF78CFDE36A2E681848019901229A405F
:1019300003EB8303324300EB83002A60FEF75AFD7A
:10194000134BE26A1B68DB6A9A4282BF114B01208B
:101950001860114B1A68126898BF002052B90F4BDB
:101960004FF0FF321A6002B070BD0D482946FEF7F5
:1019700041FDE5E71A68094BD268D26852681A60DF
:1019800002B070BDFC10002004110020B410002033
:10199000A810002080110020AC100020341100207D
:1019A0003C110020034A044B12681B68C0E9002365
:1019B000704700BF381100207C110020F0B50D46A3
:1019C00083B00446FEF7D6FD2B68144A591C1068F4
:1019D0001DD0DFF84CC0D4E90061DCF80070BE42D5
:1019E00008D0814206D801200190FEF7CDFD019874
:1019F00003B0F0BD471ABB420BD91B1A0B44DCF8ED
:101A0000001012682B600020C4E90012ECE70020EF
:101A1000EAE700232B600120E6E700BF7C110020ED
:101A200038110020014B01221A60704780110020FC
:101A3000094B186818B9094B1B6813B1704700208F
:101A40007047074A074B10681B68013B984214BF58
:101A500001200220704700BF3C11002080110020AF
:101A600054110020F0100020054B1B6833B1054BCA
:101A70001B68002B0CBF022000207047012070471C
:101A800050110020FC10002068B1F0B5C36BC16A92
:101A9000826B013B914283B00446C36300D023B103
:101AA000002003B0F0BD00207047011D08460191E1
:101AB000FEF7C4FC0199A8B11248134EA36B376816
:101AC000E3620125C3F10302A26105FA03F203EB0D
:101AD00083033A4300EB83003260FEF78BFC284619
:101AE00003B0F0BDE26A0748074E02EB82039B0099
:101AF000C358002BE2D101239340326822EA03024B
:101B00003260DBE7B4100020041100202DE9F0431F
:101B10001D4EDFF87C9085B04FF000080CE0DB68CC
:101B2000DC681F68251D2846FEF788FC636A20468E
:101B30009847E369012B0AD033681A68002AEED16E
:101B4000124A11683160136005B0BDE8F083A369E3
:101B50003B449F42294610D3D9F80030002BEBD0EC
:101B6000CDE900870294FFF77FFF0023D9F800003A
:101B70001A466946FEF720FEDEE73068636024619E
:101B8000FEF744FCD8E700BF841100208811002034
:101B9000B81100202DE9F04F854E864D864CDFF8B8
:101BA00020928BB03368D3F800A0BAF1000F00F098
:101BB0009A80DB68D3F800A0FFF7BEFBFFF7C4FBF9
:101BC0002A688242804600F29F808245286040F267
:101BD000AF8000222068AAEB0801FFF775F9FFF734
:101BE0005BFC40B94FF08053C9F8043040BFBFF3ED
:101BF0004F8FBFF36F8F2068002202A9FFF702F812
:101C00000028CFD0029B002B65DB049F7B6913B1BA
:101C1000381DFEF713FCFFF797FB2B6898428046B0
:101C200079D3029BC5F80080092BE4D801A252F8B1
:101C300023F000BF5D1C00005D1C00005D1C000067
:101C4000F71B0000AD1C0000CF1C00005D1C000055
:101C50005D1C0000F71B0000AD1C0000039BBA696F
:101C60003F6199182CBF012000204145796055D86B
:101C7000A8EB03039A4223D87B6A38469847FB694E
:101C80002068012BB8D10028B6D00023BA6906938A
:101C9000039B089713440793FFF7E6FE0023206891
:101CA0001A4606A9FEF788FD2068A5E7039BBB61DD
:101CB00003EB080242457A603F6133D8002B9AD08B
:101CC0003E4B391D1868FEF7A1FB206894E73846A3
:101CD000FEF77EFB8FE7039BDDE904019847029B3B
:101CE000002B88DB91E7FFF727FBFFF72DFB2A6826
:101CF0008242804608D8314BC5F800801A681268C5
:101D0000B2FA82F2520965E7FFF700FFC5F80080DA
:101D1000FFF7C2FB6FE7FFF7F9FE82E7434501D902
:101D20000028A9D03068391DFEF770FB206863E7F2
:101D3000FFF7B2FB3268D268D2F80CB00BF10401A5
:101D400008460191FEF77AFBDBF81C000199012897
:101D500004D0DBF82430584698474CE7DBF81800ED
:101D6000CBF810B00AEB00034345CBF8043003D99D
:101D70003068FEF74BFBECE7A8EB0A03984211D85A
:101D80002368002BE5D000230693CDF81CA0CDF8E6
:101D900020B0FFF769FE002320681A4606A9FEF767
:101DA0000BFDD6E7054B1868FEF730FBD1E700BF07
:101DB00084110020B4110020B811002088110020E7
:101DC00000ED00E0F0B5174C83B0FEF7D3FB2568BB
:101DD0007DB1FEF7D9FB206848B1134A1349144876
:101DE0000223CDE9003200235022FFF7D1F803B0DF
:101DF000F0BD104F104E3846FEF7ECFA3046FEF7B5
:101E0000E9FA0E4B1F600E4B2A46102120201E605F
:101E1000FEF798FC20600028DBD00A49FFF744F861
:101E2000D7E700BFB8110020BC110020182B00001C
:101E3000951B00008C110020A011002084110020AF
:101E400088110020102B00002DE9F04F074683B0C9
:101E50002820884616461D46FEF78EFA044688B1AD
:101E6000DFF87090FEF786FBD9F8002072B1FEF71C
:101E70008BFB0C9B2760C4E9068625626362201DEC
:101E8000FEF7B4FA204603B0BDE8F08FDFF848B0A3
:101E9000DFF848A001925846FEF79CFA5046FEF73C
:101EA00099FA094B019AC3F800B0084B1021202081
:101EB000C3F800A0FEF746FCC9F800000028D6D001
:101EC0000349FEF7F1FFD2E78411002088110020BA
:101ED000102B0000B81100208C110020A011002050
:101EE00030B5144D2C6885B0CCB10529CDE9001270
:101EF00002900BDCFFF7B8FD022813D000232868FE
:101F00001A466946FEF758FC05B030BD9C4662464D
:101F1000002369462046FEF7F7FD05B030BD204698
:101F200005B030BD2868089A00236946FEF744FCD6
:101F300005B030BDB811002000B585B003460021C2
:101F400001AA44F20100CDE90111039300F004F865
:101F500005B05DF804FB00BF72B6094BD3F8F03052
:101F6000DB0700D500BEBFF34F8F0549054BCA689C
:101F700002F4E0621343CB60BFF34F8F00BFFDE775
:101F800000ED00E00400FA0572B6024A136801335E
:101F900013607047C0110020034A1368013B1360AF
:101FA00003B962B6704700BFC011002010B568B910
:101FB0000E4CA368012262703BB1D3E900230020DC
:101FC000A2609847A368002BF7D110BD0128FCD16F
:101FD000064C2369A070002BF7D0D3E90023012021
:101FE000226198472369002BF7D110BDC41100204E
:101FF00010B50D4C237882B043B185200B4BD3F83C
:1020000000340BB10123A37002B010BD0848636017
:10201000A3602361E36000F03BF8019000F044F816
:10202000012301982370E9E7C4110020000001405A
:10203000AD1F000038B5154DAB78044673B110B133
:102040004368012098470020FFF79EFFEB680133AB
:10205000EB600020BDE83840FFF79EBF03F0FF00B3
:10206000FFF792FF64B12A6942B1944208D0134647
:1020700001E09C4204D01B68002BFAD122602C6145
:10208000EB68002BE2D100F021F8DFE7C41100205B
:10209000044A137923B901211060918018467047D2
:1020A00085207047D8110020074B1A68D20704D446
:1020B000C02283F8002301221A604FF080430122DE
:1020C000C3F81825704700BF00E100E010B44FF0DE
:1020D00080430022C3F8042183B0D3F80421019285
:1020E000104901980222C3F80423D1F8FC000E4ADB
:1020F00040F08073C1F8FC30146844F001031360B1
:10210000516853685B1AB3F50A5FFAD30549146046
:102110004FF080430122C1F8FC009A6003B05DF8E3
:10212000044B704700ED00E0001000E010B54FF0E8
:10213000804382B0D3F8002162B10021164AC3F86F
:102140000011D3F80011507900910121009CC3F8CF
:102150000813A8B14FF08043D3F80421CAB100227C
:10216000C3F80421D3F80421019202210A4A0198FC
:10217000C3F808131368012002B0BDE810401847E7
:102180001368517198474FF08043D3F80421002A17
:10219000E5D102B010BD00BFD8110020F0B585B068
:1021A0001D4A00230193D2F80011012900F0E581B6
:1021B0001E46194BD3F80421012A00F0CF81164B9B
:1021C000D3F80821012A00F0B881134BD3F80C2171
:1021D000012A00F0A381104BD3F81021012A00F04E
:1021E0008E810D4BD3F81421012A00F079810A4B1E
:1021F000D3F81821012A00F06481074BD3F81C2181
:10220000012A0BD0044BD3F87C21012A00F0C281B3
:1022100026BB05B0F0BD00BF00600040D3F804232A
:102220001206EFD50022C3F81C21D3F81C1102912D
:10223000D3F87C110298012946F080060ED1C3F82C
:102240007C21D3F87C2103924FF0A043039AD3F86A
:1022500020250192C3F8202546F00046BE4F0125F7
:102260000024A30003F180432E4203F5C0434FEA4C
:1022700045050BD0D3F8100557F82420D3F81015D6
:10228000C0F30420C1F3014102B190470134082C8E
:10229000E7D1002EBDDAB04C01254FF0A04694F9ED
:1022A0005000471C3DD0C0F3C20310336B44C1B291
:1022B00013F80C2C00F0070305FA03F31A4200F0A0
:1022C0003F002ED0830003F1A04305FA00F7D3F8B6
:1022D0000027D3F800C72CF4403CC3F800C7C2F372
:1022E0000142D3F800C7022A0CBF4FF4403E4FF41E
:1022F000003E4CEA0E0CC3F800C72318C6F8207540
:1023000093F9303054F823305BB18909032900F088
:102310006581022A00F05F81032A02D1022900F0C0
:102320005D8194F95100411C3DD0C0F3C2031033CC
:102330006B44C1B213F80C2C00F0070305FA03F349
:102340001A4200F03F002ED0830003F1A04305FAAB
:1023500000F7D3F80027D3F800C72CF4403CC3F8AB
:1023600000C7C2F30142D3F800E7022A0CBF4FF4C2
:10237000403C4FF4003C4CEA0E0CC3F800C7231855
:10238000C6F8207593F9303054F823305BB18909D1
:10239000032900F01981022A00F01381032A02D1D7
:1023A000022900F0118194F95200421C3DD0C0F383
:1023B000C20310336B44C1B213F80C2C00F00703B6
:1023C00005FA03F31A4200F03F002ED0830003F118
:1023D000A04305FA00F7D3F80027D3F800C72CF480
:1023E000403CC3F800C7C2F30142D3F800E7022A19
:1023F0000CBF4FF4403C4FF4003C4CEA0E0CC3F8C9
:1024000000C72318C6F8207593F9303054F82330EC
:102410005BB18909032900F0D280022A00F0CC8048
:10242000032A02D1022900F0CA8094F95300431C08
:102430003DD0C0F3C20310336B44C1B213F80C2C6F
:1024400000F0070305FA03F31A4200F03F002ED014
:10245000830003F1A04305FA00F7D3F80027D3F86F
:1024600000C72CF4403CC3F800C7C2F30142D3F8C4
:1024700000E7022A0CBF4FF4403C4FF4003C4CEA0A
:102480000E0CC3F800C72318C6F8207593F9303036
:1024900054F823305BB18909032900F09A80022A9D
:1024A00000F09480032A02D1022900F09280D6F82D
:1024B00020350193C6F82035002B7FF4F0AE05B02F
:1024C000F0BDD3F8042351067FF597AE0022C3F880
:1024D0001821D3F818310293029B46F040068CE68F
:1024E000D3F8042390067FF582AE0022C3F81421AE
:1024F000D3F814310293029B46F0200677E6D3F816
:102500000423D4067FF56DAE0022C3F81021D3F862
:1025100010310293029B46F0100662E6D3F80423C2
:1025200015077FF558AE0022C3F80C21D3F80C3103
:102530000293029B46F008064DE6D3F804235707A2
:102540007FF543AE0022C3F80821D3F80831029387
:10255000029B46F0040638E6E0110020D3F804237D
:1025600092077FF52CAE0022C3F80421D3F8043182
:102570000293029B46F0020621E6D2F8046316F0AD
:1025800001063FF416AEC2F80031D2F800310293D2
:10259000029B0EE60022C3F87C21D3F87C21039233
:1025A0004FF0A043039AD3F820250192C3F82025C9
:1025B000002E3FF470AE4FE601297FF436AF984706
:1025C00033E701297FF4EFAE9847ECE601297FF469
:1025D0006EAF98476BE701297FF4A3AE9847A0E65A
:1025E0000120FDF789BE00BF08B50020FDF784FE7D
:1025F000C820FEF7E7FFF8E710B582B0FFF7F8FC58
:1026000050BB174C0120FDF789FE0220CDE90004E4
:102610001449154C154800234FF48272FEF7B8FC9C
:1026200001224FF47A71002300941148FFF70CFC4B
:10263000104B04461860FEF787FE00230246009305
:1026400001212046FFF74CFC0B4A136943F00403B9
:102650001361FEF78FFDFEE7FFF76EFCD1E700BFC9
:102660003C120020202B0000E1250000E92500009D
:10267000282B00004012002000ED00E010B44FF0C5
:102680008053D3F830315A1C04BF4FF0704393F895
:10269000E03F062B08D14FF08053C24AD3F82433D1
:1026A000C3F30423C2F840354FF0704393F8E02F92
:1026B000062A00F024814FF08053D3F830315C1C9F
:1026C00004BF4FF0704393F8E03F062B09D14FF061
:1026D00080534FF08042D3F84432C3F34233C2F800
:1026E0003C354FF0704393F8E02F062A00F0F2805B
:1026F0004FF08053D3F83031581C04BF4FF0704373
:1027000093F8E03F062B08D14FF080430022C3F836
:102710000C21C3F81021C3F838254FF0704393F80B
:10272000E02F062A00F0B3804FF08052D2F830310B
:10273000591C27D0062BD2F834212DD09A4AD2F832
:10274000883043F47003C2F88830BFF34F8FBFF373
:102750006F8F4FF08053D3F83021062A00F0E080CD
:102760004FF01023D3F80022002AC0F23B81D3F8A7
:102770000432002BC0F236818C4B8D4A1A605DF812
:10278000044B70474FF0704292F8E01FD2F8E82FE8
:102790000629D3D1C2F30312033A042A40F2DA80A5
:1027A0004FF08053834AD3F80414C2F82015D3F8AD
:1027B0000814C2F82415D3F80C14C2F82815D3F85D
:1027C0001014C2F82C15D3F81414C2F83015D3F82D
:1027D0001814C2F83415D3F81C14C2F84015D3F8F5
:1027E0002014C2F84415D3F82414C2F84815D3F8BD
:1027F0002814C2F84C15D3F82C14C2F85015D3F88D
:102800003014C2F85415D3F83414C2F86015D3F854
:102810003814C2F86415D3F83C14C2F86815D3F81C
:102820004014C2F86C15D3F84414D3F83031C2F810
:1028300070155C1C04BF4FF0704393F8E03F062B0B
:102840007FF47CAF4FF080524FF08041D2F8583285
:10285000D2F8302103F04F03501CC1F8E43E7FD082
:10286000062A7FF46BAFD1F80034DA0700F18480D8
:102870004FF08053D3F83431033B042B64D94E4AD4
:10288000D2F83C3743F48063C2F83C3756E7D3F8BC
:10289000E83FC3F30313033B042B3FF645AF474A1E
:1028A000D25C22B14FF080420321C2F8A015444A05
:1028B000D35C002B3FF438AF424B052401200021AC
:1028C0003F22C3F81046C3F88806C3F81816C3F8A9
:1028D000142629E7D3F8E83FC3F30313033B042B83
:1028E0003FF606AF384AD35C002B3FF401AF2E4AC7
:1028F000D2F8FC3023F08073C2F8FC30F8E6D3F84D
:10290000E83FC3F30313033B042B3FF6D4AE2F4A37
:10291000D35C002B3FF4CFAE2D4B2E4A5A67CAE64C
:10292000D3F83431033B042B08D94FF010224FF079
:102930008043D2F80822C3F8582511E7264AD35C11
:10294000002B3FF40DAFF0E7244AD35C002B3FF49B
:10295000F5AE94E722498A5C002A3FF46AAF1FE78C
:102960004FF0704393F8E03F062B7FF4E7AED1F8C9
:102970000034DB077FF5E2AE4FF080534FF080422A
:10298000D3F830316FF00101062BC2F800147FF448
:10299000D5AE4FF08053D3F83431033B042B3FF6D0
:1029A0006EAFD1E70030014000ED00E000000020F4
:1029B0000090D00300C0004000100040482B0000F1
:1029C000482B000000500040482B0000482B00001E
:1029D00000C007400DF0ADBA402B0000382B0000BE
:1029E000302B0000184A0123C2F80435D2F8003415
:1029F000002BFBD04FF010231521134AC3F800120F
:102A0000D2F80034002BFBD04FF0102315210E4AD2
:102A1000C3F80412D2F80034002BFBD000230A497B
:102A2000C2F80435D1F80034002BFBD0BFF34F8F30
:102A30000649074BCA6802F4E0621343CB60BFF358
:102A40004F8F00BFFDE700BF00E0014000ED00E058
:102A50000400FA0508B5074B044613B10021AFF393
:102A60000080054B1868836A03B19847204600F040
:102A70003FF800BF00000000502B000070B50D4D66
:102A80000D4C641BA4100026A64209D10B4D0C4C22
:102A900000F030F8641BA4100026A64205D170BDDA
:102AA00055F8043B98470136EEE755F8043B984744
:102AB0000136F2E76400002064000020640000207A
:102AC000680000200A44914200F1FF3300D17047B2
:102AD00010B511F8014B03F8014F9142F9D110BD27
:102AE00002440346934200D1704703F8011BF9E703
:102AF000FEE700BFF8B500BFF8BC08BC9E467047B3
:102B0000F8B500BFF8BC08BC9E467047181F1114EA
:102B1000546D725100000000546D722053766300B2
:102B20004C454430000000004C454431000000009A
:102B30000000010101000000000000010100000090
:102B40000000000001000000010000000000000083
:082B5000040000200000000059
:082B5800E8D6FF7F0100000038
:102B60000090D00300000000000000000000000002
:102B70000000000000000000000000000000000055
:102B80000000000000000000000000000000000045
:102B90000000000000000000000000000000000035
:102BA0000000000000000000000000000000000025
:102BB0000000000000000000000000000000000015
:0C2BC000000000002502000001020000DF
:04000003000002BD3A
:00000001FF
