:100000000000012089030000710300007303000059
:100010007503000077030000790300000000000072
:1000200000000000000000000000000009090000BE
:100030007D030000000000002D0900008103000086
:10004000713300008303000083030000830300007A
:1000500083030000830300000538000083030000D1
:100060008303000083030000830300008303000078
:100070008303000083030000830300008303000068
:1000800083030000490E0000830300008303000087
:100090008303000083030000830300008303000048
:1000A0008303000083030000830300008303000038
:1000B0008303000083030000000000000000000034
:1000C0008303000083030000830300008303000018
:1000D000830300008303000083030000000000008E
:1000E0000000000000000000000000000000000010
:1000F0000000000000000000000000000000000000
:1001000000000000000000000000000000000000EF
:1001100000000000000000000000000000000000DF
:1001200000000000000000000000000000000000CF
:1001300000000000000000000000000000000000BF
:1001400000000000000000000000000000000000AF
:10015000000000000000000000000000000000009F
:10016000000000000000000000000000000000008F
:10017000000000000000000000000000000000007F
:10018000000000000000000000000000000000006F
:10019000000000000000000000000000000000005F
:1001A000000000000000000000000000000000004F
:1001B000000000000000000000000000000000003F
:1001C000000000000000000000000000000000002F
:1001D000000000000000000000000000000000001F
:1001E000000000000000000000000000000000000F
:1001F00000000000000000000000000000000000FF
:100200003A493B480A1A02D0072291438D463949A0
:1002100039480A1A06D00722914381F3098802223D
:1002200082F3148835483649364A00F041F836489A
:100230003649374A00F03CF836483749374A00F02B
:1002400037F837483749384A00F032F837483849E4
:10025000384A00F02DF838483849394A00F028F873
:1002600038483949394A00F023F8394839490022D9
:1002700000F036F838483949002200F031F83848A3
:100280003849091A04F00AF8374A904725482649A0
:10029000884205D00268043003B4904703BCF7E7F6
:1002A00000208646EC4600200021304A9047FEE7B9
:1002B000884214D0521A12D003460B43134303242E
:1002C000234206D1036804300B600431043AF9D1AB
:1002D0007047037801300B700131013AF9D1704752
:1002E000884202D002700130FAE770470000012016
:1002F00000E000200000012000000120504A000022
:100300000000002004000020E4030000E4030000DB
:1003100078430000504A0000000000200000002048
:1003200078430000784300007843000078430000E1
:1003300078430000784300007843000078430000D1
:100340004D4A0000544A0000040000200400002030
:1003500004000020E8110020E8110020E81100202E
:10036000E8110020E8310020B1030000313900001D
:10037000FEE7FEE7FEE7FEE7FEE7FEE7FEE7FEE755
:10038000FEE7FEE700F002B8FFF7FCBF0F484FF0B2
:100390000701884385460E4880470E48016841F4AE
:1003A00070010160BFF34F8FBFF36F8FFFF728BF5E
:1003B00009480A490A4A884207D0521A05D00378E8
:1003C00001300B700131013AF9D170470000012072
:1003D000F13F000088ED00E07843000000000020BD
:0403E00000000020F9
:1003E40000B583B00190019B1B68184600F0D7F854
:1003F4000346002B04D105494FF4F67002F007FDC3
:100404004FF0A043184603B05DF804FB78430000A6
:1004140000B585B00190084611461A4603468DF88A
:1004240003300B468DF8023013468DF8013001ABD2
:100434001846FFF7D5FF03909DF803209DF802307E
:100444005B001A439DF801309B001A439DF8183055
:100454001B0242EA03019DF81C301B04019A194354
:10046400039B02F5E07243F8221000BF05B05DF86B
:1004740004FB00B585B0039000230193002300938F
:100484000023012201210398FFF7C2FF00BF05B03A
:100494005DF804FB00B585B003900B468DF80B3076
:1004A4009DF80B30002201920022009200220021CC
:1004B4000398FFF7ADFF00BF05B05DF804FB00B57E
:1004C40085B0019001AB1846FFF78AFF0390019BAA
:1004D400012202FA03F31946039800F04CF800BF16
:1004E40005B05DF804FB00B585B0019001AB18467A
:1004F400FFF776FF0390019B012202FA03F31946EA
:10050400039800F042F800BF05B05DF804FB00B5A5
:1005140085B0019001AB1846FFF762FF0390039B7F
:10052400D3F804350293029BDA43019B012101FABB
:1005340003F31A40039BC3F80825019B01229A4048
:10054400029B1A40039BC3F80C2500BF05B05DF85D
:1005540004FB00B583B001900091009B002B03D1F4
:100564000198FFF7C0FF02E00198FFF7A8FF00BF62
:1005740003B05DF804FB82B001900091019B009AE6
:10058400C3F8082500BF02B0704782B00190009103
:10059400019B009AC3F80C2500BF02B0704784B0D9
:1005A4000190019B5B09029300230393029B002BA0
:1005B40003D14FF0FF33039300BF019B03F01F03EC
:1005C4000193039A019B22FA03F303F00103002B26
:1005D40014BF01230023DBB2184604B070470000A7
:1005E40000B583B00190019B032B03D90749472031
:1005F40002F00DFC064A019B13441B7801211846A6
:10060400FFF7A7FF00BF03B05DF804FBA843000099
:100614002044000000B583B00023019305E0019855
:10062400FFF7DEFF019B01330193019B032BF6D9F6
:1006340000BF00BF03B05DF804FB000000B583B049
:100644000190019B032B03D907495F2002F0DFFBD4
:10065400064A019B13441B781846FFF758FF00BF56
:1006640003B05DF804FB00BFA84300002044000071
:1006740000B583B00023019309E0094A019B1344A8
:100684001B781846FFF7F5FE019B01330193019B8C
:10069400032BF2D9FFF7BEFF00BF03B05DF804FBE4
:1006A4002044000000B583B0002301930AE0094A06
:1006B400019B13441B7803211846FFF7EBFE019BB3
:1006C40001330193019B032BF1D900BF00BF03B099
:1006D4005DF804FB2444000000B583B00190019B45
:1006E40003F00103002B01D0FFF7C2FF019B03F0CD
:1006F4000203002B01D0FFF7D5FF00BF03B05DF864
:1007040004FB000000B585B0019000230393019B16
:1007140003F00703002B04D0019B23F007030833E5
:10072400019301F06DFA164B1B68002B05D1154B94
:1007340023F007031A46124B1A60134B1A68019BE5
:10074400134440F6F772934213D80F4B1A68019B77
:100754001A440D4B1B689A420BD9094B1A680A4B71
:100764001B6813440393084B1A68019B1344064AFD
:10077400136001F085FA039B184605B05DF804FB8D
:10078400081000200C0000200410002000B583B0E5
:100794000190019B002B03D00349832002F037FB17
:1007A40000BF03B05DF804FB2844000082B0019050
:1007B400019B03F10802019B5A60019B4FF0FF3239
:1007C4009A60019B03F10802019BDA60019B03F12B
:1007D4000802019B1A61019B00221A6000BF02B04B
:1007E400704782B00190019B00221A6100BF02B0E1
:1007F400704784B001900091019B5B680393009B58
:10080400039A5A60039B9A68009B9A60039B9B68B7
:10081400009A5A60039B009A9A60009B019A1A619D
:10082400019B1B685A1C019B1A6000BF04B07047EF
:1008340084B001900091009B1B680293029BB3F16A
:10084400FF3F03D1019B1B6903930CE0019B083319
:10085400039302E0039B5B680393039B5B681B6841
:10086400029A9A42F6D2039B5A68009B5A60009BF4
:100874005B68009A9A60009B039A9A60039B009AB3
:100884005A60009B019A1A61019B1B685A1C019BC8
:100894001A6000BF04B0704784B00190019B1B69CB
:1008A4000393019B5B68019A92689A60019B9B6821
:1008B400019A52685A60039B5B68019A9A4203D179
:1008C400019B9A68039B5A60019B00221A61039B57
:1008D4001B685A1E039B1A60039B1B68184604B0CE
:1008E400704700000648006880F3088862B661B665
:1008F400BFF34F8FBFF36F8F00DF00BF00BF000057
:1009040000000000074B19680868B0E8F04F80F356
:100914000988BFF36F8F4FF0000080F31188704790
:1009240000BF000028100020EFF30980BFF36F8F91
:10093400154B1A681EF0100F08BF20ED108A20E92D
:10094400F04F10604DF8043D4FF0400080F31188E3
:10095400BFF34F8FBFF36F8F01F0FEFA4FF000002B
:1009640080F3118808BC19680868B0E8F04F1EF0DD
:10097400100F08BFB0EC108A80F30988BFF36F8FA3
:10098400704700BF00BF000028100020034BDB6845
:100994001B0A03F007031846704700BF00ED00E090
:1009A40082B0034600918DF807309DF90730002B83
:1009B4000ADB009BDAB20C499DF907305201D2B22E
:1009C4000B4483F800230BE0009BDAB207499DF83F
:1009D400073003F00F03043B5201D2B20B441A76E2
:1009E40000BF02B0704700BF00E100E000ED00E08E
:1009F40084B0039002910192039B043B0393002370
:100A040043F080731A46039B1A60039B043B0393D1
:100A1400029A039B1A60039B043B03930B4A039BB8
:100A24001A60039B143B0393019A039B1A60039B74
:100A3400043B0393039B6FF002021A60039B203B69
:100A44000393039B184604B0704700BF550A000087
:100A540000B583B0074B1B68B3F1FF3F03D00649D1
:100A64009E2002F0D4F940230193019B83F3118863
:100A740000BFFEE70C100020B844000000B585B0AC
:100A8400304B1B68304A934203D03049B02002F007
:100A9400BEF92F4B0393039B1B78DBB20293039B9A
:100AA400FF221A70039B1B78DBB28DF807309DF888
:100AB4000730DBB203F00203DAB2264B1A70264B7E
:100AC40007221A600BE0244B1B68013B224A136087
:100AD4009DF80730DBB25B00DBB28DF807309DF880
:100AE4000730DBB203F08003802BECD01A4B1B6879
:100AF40003F00703184A1360029BDAB2039B1A70CF
:100B04000F216FF00100FFF74BFF00F0E5F9134BE5
:100B140000221A6000F06EF8114B5B68104A43F033
:100B240040435360074B1B69064A43F010031361AB
:100B3400FFF7D8FEFFF78CFF0023184605B05DF8D9
:100B440004FB00BF00ED00E041C20F41B8440000C7
:100B540000E400E010100020141000200C1000200D
:100B640030EF00E000B583B040230193019B83F391
:100B7400118800BF0B4B1B6801330A4A1360094BF1
:100B84001B68012B0AD1084B5B68C3F30803002BD5
:100B940004D0064940F2111002F039F900BF03B045
:100BA4005DF804FB0C10002000ED00E0B8440000E8
:100BB40000B583B00D4B1B68002B04D10C494FF4D6
:100BC4008C7002F024F9094B1B68013B074A13603F
:100BD400064B1B68002B05D100230193019B83F373
:100BE400118800BF00BF03B05DF804FB0C100020A7
:100BF400B8440000044BD3F88830034A43F470032C
:100C0400C2F8883000BF704700ED00E000B585B041
:100C1400EFF305830193019B0093BDF80030C3F308
:100C240008039BB20393039B0F2B12D9114A039B16
:100C3400103B134493F800338DF80B300E4B1B78A4
:100C44009DF80B209A4204D20C494FF4A97002F08B
:100C5400DEF8FFF79BFE0246094B1B689A4204D953
:100C640006494FF4B17002F0D2F800BF05B05DF848
:100C740004FB00BF00E100E010100020B8440000B5
:100C84001410002082B003468DF807309DF9073018
:100C9400002B0CDB9DF8073003F01F0205499DF97A
:100CA40007305B09012000FA02F241F8232000BF5B
:100CB40002B0704700E100E082B003468DF80730CF
:100CC4009DF90730002B0DDB9DF8073003F01F0260
:100CD40006499DF907305B09012000FA02F26033EE
:100CE40041F8232000BF02B0704700BF00E100E0DC
:100CF40082B0034600918DF807309DF90730002B30
:100D04000ADB009BDAB20C499DF907305201D2B2DA
:100D14000B4483F800230BE0009BDAB207499DF8EB
:100D2400073003F00F03043B5201D2B20B441A768E
:100D340000BF02B0704700BF00E100E000ED00E03A
:100D440084B0EFF311830193019B03934023029337
:100D5400029B83F3118800BF039B184604B07047BD
:100D640084B0039002910192039B029A02F5A87247
:100D7400019943F8221000BF04B0704782B001907B
:100D84000091019B009AC3F8042300BF02B070478E
:100D940082B001900091019B009AC3F8082300BF20
:100DA40002B0704784B001900B46ADF80230BDF834
:100DB4000230019A134400221A60BDF80230019AED
:100DC40013441B680393039B00BF04B0704782B0B5
:100DD4000190019BD3F80435184602B07047000017
:100DE40000B583B001900091009BB3F5805F04D3FC
:100DF40006494FF4BE7002F00AF8019B009AC3F84A
:100E0400082500BF03B05DF804FB00BF484500009F
:100E140082B001900B468DF803309DF80320019BAE
:100E240013441A460123136000BF02B0704782B016
:100E340001900091019B009AC3F8442300BF02B0C3
:100E44007047000000B587B04FF4A0712048FFF749
:100E5400A9FF00230593FFF773FF03901C48FFF7D6
:100E6400B6FF02904FF480711948FFF79BFF00F022
:100E7400A1FF0246029B9B1A23F07F430493049B29
:100E8400012B0DD901F0DEFA0346022B08D0012311
:100E9400049305E000F0B8FF0246059B1343059355
:100EA400049B5A1E0492002BF4D1059B002B04D002
:100EB400084B4FF080525A6040BF039B0193019B43
:100EC40083F3118800BF00BF07B05DF804FB00BFC7
:100ED4000010014000ED00E008B5002002F018F811
:100EE4001F210E48FFF77CFF01210C48FFF746FF46
:100EF40008210A48FFF78CFF00210848FFF788FF04
:100F040002210648FFF793FF0F211120FFF7F0FE9F
:100F14001120FFF7B7FE00BF08BD00BF001001405D
:100F240000B589B00190019B364A934201D9354BF3
:100F3400019372B600BF3448FFF749FF069001F0F1
:100F4400B9F90346002B56D0069A019B134423F0AB
:100F54007F43059301212C48FFF71AFF059A0021CE
:100F64002948FFF7FDFE4FF4A0712748FFF71AFF49
:100F74004FF480312448FFF701FFBFF34F8F00BFC8
:100F8400019B0493049B002B09D020BF1F4BD3F873
:100F940000211E4BD3F804311343002BF5D04FF43A
:100FA40080311948FFF7F4FE4FF4A0711648FFF79B
:100FB400F9FE4FF480711448FFF7F4FE0121124842
:100FC400FFF7DCFE1048FFF702FF0390039A069B2D
:100FD400D31A23F07F4307931120FFF76DFE079A7E
:100FE400019B9A4201D9019B0793079B002B02D0D6
:100FF400079800F0E9FE62B600BF00BF09B05DF8D3
:1010040004FB00BFFDFFFF000010014000E100E011
:1010140084B0EFF311830193019B03934023029364
:10102400029B83F3118800BF039B184604B07047EA
:1010340000B585B001900091019B0393039B002BA5
:1010440003D12B49FC2001F0E2FEFFF78BFD039B4B
:101054001A68039BDB6B0399096C01FB03F31A44C5
:10106400039B5A60039B00229A63039B1A68039BA9
:101074009A60039B1A68039BDB6B013B0399096C21
:1010840001FB03F31A44039BDA60039BFF2283F8FA
:101094004420039BFF2283F84520009B002B16D19C
:1010A400039B1B69002B1CD0039B1033184600F0D4
:1010B400F1FF0346002B14D00E4B4FF080525A60C0
:1010C40040BFBFF34F8F00BFBFF36F8F09E0039B97
:1010D40010331846FFF76AFB039B24331846FFF7C7
:1010E40065FBFFF765FD0123184605B05DF804FBB9
:1010F4007845000000ED00E000B58BB00590049148
:1011040013468DF80F30059B002B04D1154940F28E
:101114006D1001F07CFE049B002B02D10023099387
:1011240004E0059B049A02FB03F30993099B4833EB
:101134001846FFF7E7FA0890089B002B0CD0089B91
:10114400483307939DF80F20089B00931346079A92
:101154000499059800F008F8089B18460BB05DF850
:1011640004FB00BF7845000000B585B003900291F0
:1011740001928DF80330029B002B03D1069B069A43
:101184001A6002E0069B019A1A60069B039ADA63CE
:10119400069B029A1A6401210698FFF749FF00BFD3
:1011A40005B05DF804FB000000B58BB0039002911C
:1011B4000192009300230993039B0893089B002B3F
:1011C40004D167494FF4377001F021FE029B002BD4
:1011D40008D1089B1B6C002B04D0614940F2DD2030
:1011E40001F015FE009B022B08D1089BDB6B012B41
:1011F40004D05B4940F2DE2001F009FE01F022F93F
:101204000346002B07D1019B002B04D0544940F224
:10121400E12001F0FCFDFFF7A5FC089B9A6B089BFD
:10122400DB6B9A4202D3009B022B2ED1009A0299C7
:10123400089800F0D5F90790089B5B6A002B12D040
:10124400089B2433184600F025FF0346002B18D0D2
:10125400444B4FF080525A6040BFBFF34F8F00BFE2
:10126400BFF36F8F0DE0079B002B0AD03D4B4FF06F
:1012740080525A6040BFBFF34F8F00BFBFF36F8FE0
:1012840000BFFFF795FC012365E0019B002B03D110
:10129400FFF78EFC00235EE0099B002B05D105AB14
:1012A400184600F057FF01230993FFF781FC00F073
:1012B400A7FCFFF757FC089B93F844305BB2B3F1EB
:1012C400FF3F03D1089B002283F84420089B93F836
:1012D40045305BB2B3F1FF3F03D1089B002283F892
:1012E4004520FFF765FC01AA05AB1146184600F03E
:1012F40043FF0346002B26D1089800F06BFA0346FF
:10130400002B1AD0089B1033019A1146184600F09E
:101314007BFE089800F0F2F900F0B2FC0346002BC3
:101324007FF479AF0F4B4FF080525A6040BFBFF348
:101334004F8F00BFBFF36F8F0CE0089800F0DEF909
:1013440000F09EFC67E7089800F0D8F900F098FCDC
:10135400002300E05FE718460BB05DF804FB00BF14
:101364007845000000ED00E000B58BB003900291D9
:1013740001920093039B0893089B002B04D13249EC
:1013840040F2A23001F043FD029B002B08D1089BE0
:101394001B6C002B04D02C4940F2A33001F037FD24
:1013A400009B022B08D1089BDB6B012B04D0264940
:1013B4004FF4697001F02BFDFFF728FCFFF728FEBE
:1013C4000790089B9A6B089BDB6B9A4202D3009BA5
:1013D400022B2CD1089B93F845308DF81B30009AD2
:1013E4000299089800F0FCF89DF91B30B3F1FF3F17
:1013F40012D1089B5B6A002B16D0089B2433184635
:1014040000F048FE0346002B0ED0019B002B0BD0AE
:10141400019B01221A6007E09DF81B300133DBB207
:101424005AB2089B83F845200123099301E0002365
:101434000993079B0593059B83F3118800BF099BC0
:1014440018460BB05DF804FB7845000000B58BB07E
:1014540003900291019200230993039B0893089B34
:10146400002B04D15C4940F2DF4001F0D0FC029B28
:10147400002B08D1089B1B6C002B04D0564940F26A
:10148400E34001F0C4FC00F0DDFF0346002B07D16C
:10149400019B002B04D050494FF49D6001F0B7FC30
:1014A400FFF760FB089B9B6B0793079B002B22D0E5
:1014B4000299089800F0FDF8079B5A1E089B9A634E
:1014C400089B1B69002B12D0089B1033184600F0B0
:1014D400E1FD0346002B0AD0404B4FF080525A6086
:1014E40040BFBFF34F8F00BFBFF36F8F00BFFFF745
:1014F4005FFB01236BE0019B002B03D1FFF758FB3B
:10150400002364E0099B002B05D105AB184600F0CD
:1015140021FE01230993FFF74BFB00F071FBFFF75A
:1015240021FB089B93F844305BB2B3F1FF3F03D136
:10153400089B002283F84420089B93F845305BB253
:10154400B3F1FF3F03D1089B002283F84520FFF746
:101554002FFB01AA05AB1146184600F00DFE034609
:10156400002B25D1089800F020F90346002B19D050
:10157400089B2433019A1146184600F045FD08984B
:1015840000F0BCF800F07CFB0346002B88D1134B21
:101594004FF080525A6040BFBFF34F8F00BFBFF37C
:1015A4006F8F13E0089800F0A9F800F069FB77E763
:1015B400089800F0A3F800F063FB089800F0F5F831
:1015C4000346002B3FF46CAF002300E068E71846A5
:1015D4000BB05DF804FB00BF7845000000ED00E0AF
:1015E40000B587B003900291019200230593039BF9
:1015F4009B6B0493039B1B6C002B0DD1039B1B68FB
:10160400002B4DD1039B5B68184600F035FF059015
:10161400039B00225A6043E0019B002B19D1039BDA
:101624009868039B1B6C1A46029902F041FE039BC7
:101634009A68039B1B6C1A44039B9A60039B9A68E9
:10164400039B5B689A422BD3039B1A68039B9A60A3
:1016540026E0039BD868039B1B6C1A46029902F090
:1016640027FE039BDA68039B1B6C5B421A44039BB3
:10167400DA60039BDA68039B1B689A4207D2039BD8
:101684005A68039B1B6C5B421A44039BDA60019B00
:10169400022B05D1049B002B02D0049B013B049335
:1016A400049B5A1C039B9A63059B184607B05DF87C
:1016B40004FB00B583B001900091019B1B6C002BCF
:1016C40018D0019BDA68019B1B6C1A44019BDA60F9
:1016D400019BDA68019B5B689A4203D3019B1A68F9
:1016E400019BDA60019BD968019B1B6C1A46009828
:1016F40002F0DEFD00BF03B05DF804FB00B585B069
:101704000190FFF72FFA019B93F845308DF80F30C5
:1017140013E0019B5B6A002B14D0019B2433184611
:1017240000F0B8FC0346002B01D000F07DFD9DF8CD
:101734000F30013BDBB28DF80F309DF90F30002BD9
:10174400E7DC00E000BF019BFF2283F84520FFF7A0
:101754002FFAFFF707FA019B93F844308DF80E3007
:1017640013E0019B1B69002B14D0019B1033184616
:1017740000F090FC0346002B01D000F055FD9DF8CD
:101784000E30013BDBB28DF80E309DF90E30002B8C
:10179400E7DC00E000BF019BFF2283F84420FFF751
:1017A40007FA00BF05B05DF804FB00B585B00190F1
:1017B400FFF7D8F9019B9B6B002B02D10123039304
:1017C40001E000230393FFF7F3F9039B184605B0E8
:1017D4005DF804FB00B585B00190FFF7C3F9019BE8
:1017E4009A6B019BDB6B9A4202D10123039301E0C4
:1017F40000230393FFF7DCF9039B184605B05DF85B
:1018040004FB000084B0019000910023039314E0D2
:101814000D4A039B52F83330002B0BD10A49039B2A
:10182400009A41F83320084A039BDB001344019AD1
:101834005A6006E0039B01330393039B012BE7D912
:1018440000BF00BF04B070471810002000B587B077
:10185400039002910192039B0593FFF783F9059B83
:1018640093F844305BB2B3F1FF3F03D1059B0022F0
:1018740083F84420059B93F845305BB2B3F1FF3FF6
:1018840003D1059B002283F84520FFF791F9059BBE
:101894009B6B002B06D1059B2433019A02991846B1
:1018A40000F0D2FB0598FFF729FF00BF07B05DF8F1
:1018B40004FB00B58DB00790069104931346ADF870
:1018C4001630BDF816309B001846FEF71BFF099032
:1018D400099B002B0ED04820FEF714FF0B900B9BA6
:1018E400002B03D00B9B099A1A6305E00998FEF7B5
:1018F4004DFF01E000230B930B9B002B14D0BDF88C
:101904001620002303930B9B02930F9B01930E9BC2
:101914000093049B0699079800F00EF80B9800F0CA
:101924008DF801230A9302E04FF0FF330A930A9BD8
:1019340018460DB05DF804FB00B587B00390029122
:10194400019200930A9B186B019B9B001A46A521E8
:1019540002F0E0FC0A9B1A6B019B03F18043013BFC
:101964009B0013440493049B23F007030493049BF8
:1019740003F00703002B04D02F4940F2633001F039
:1019840046FA0023059312E0029A059B1344197842
:101994000A9A059B134434330A461A70029A059B2B
:1019A40013441B78002B06D0059B01330593059B3C
:1019B400032BE9D900E000BF0A9B002283F83720FB
:1019C400089B022B01D9022308930A9B089ADA6226
:1019D4000A9B089A9A630A9B0022DA630A9B0433DF
:1019E4001846FEF7FEFE0A9B18331846FEF7F9FE6A
:1019F4000A9B0A9A1A61089BC3F103020A9B9A6123
:101A04000A9B0A9A5A620A9B00221A640A9B0022C1
:101A140083F84420009A03990498FEF7E9FF0246EC
:101A24000A9B1A60099B002B02D0099B0A9A1A6030
:101A340000BF07B05DF804FBF845000000B583B0B3
:101A44000190FFF78FF82C4B1B6801332A4A13606F
:101A54002A4B1B68002B09D1284A019B1360264B93
:101A64001B68012B10D100F053FC0DE0244B1B68C4
:101A7400002B09D1214B1B68DA6A019BDB6A9A426D
:101A840002D81E4A019B13601E4B1B6801331D4A7A
:101A94001360019BDB6A01229A401B4B1B681343B2
:101AA400194A1360019BDA6A13469B0013449B0096
:101AB400164A1A44019B043319461046FEF799FE50
:101AC400FFF776F80E4B1B68002B11D00B4B1B68ED
:101AD400DA6A019BDB6A9A420AD20D4B4FF08052BC
:101AE4005A6040BFBFF34F8F00BFBFF36F8F00BF7B
:101AF40000BF03B05DF804FBD810002028100020BC
:101B0400E4100020F4100020E01000202C1000202D
:101B140000ED00E000B585B0019000230393019B24
:101B2400002B11D0114B1B68002B04D0104940F23C
:101B34000F5001F06CF900F063F80021019800F0F7
:101B440015FD00F09DF80390039B002B0AD1094B6F
:101B54004FF080525A6040BFBFF34F8F00BFBFF3B6
:101B64006F8F00BF00BF05B05DF804FB00110020BB
:101B7400F845000000ED00E000B585B0194B019375
:101B84000023009300233C2217491848FFF791FED5
:101B94000390039B012B02D100F04CFD0390039BA7
:101BA400012B12D140230293029B83F3118800BFBF
:101BB4000F4B4FF0FF321A600E4B01221A600E4B8E
:101BC40000221A60FEF75AFF08E0039BB3F1FF3FBF
:101BD40004D10A4940F2DC7001F019F900BF05B0E4
:101BE4005DF804FBFC100020784600003D22000054
:101BF400F8100020E4100020DC100020F84500005C
:101C0400034B1B680133024A136000BF704700BFD7
:101C14000011002084B00023029301230193134B8D
:101C24001B68019A9A4201D201230293104B1B684C
:101C3400DB6A002B02D00023039312E00D4B1B68D8
:101C4400012B02D9002303930BE0029B002B02D04B
:101C54000023039305E0084B1A68084B1B68D31A4A
:101C64000393039B184604B0704700BFE0100020A4
:101C7400281000202C100020F8100020DC10002078
:101C840000B585B000230393002302933F4B1B68E8
:101C9400002B04D13E494FF4046001F0B8F8FEF77C
:101CA40061FF3A4B1B68013B384A1360374B1B6892
:101CB400002B64D1374B1B68002B60D02EE0364BD1
:101CC400DB68DB680393039B18331846FEF7E4FDD7
:101CD400039B04331846FEF7DFFD039BDB6A0122F6
:101CE4009A402E4B1B6813432C4A1360039BDA6AF9
:101CF40013469B0013449B00294A1A44039B043354
:101D040019461046FEF775FD039BDA6A254B1B68DE
:101D1400DB6A9A4202D3244B01221A601E4B1B68D1
:101D2400002BCCD1039B002B01D000F06BFB1F4B8D
:101D34001B680193019B002B10D000F065F803464B
:101D4400002B02D0184B01221A60019B013B019326
:101D5400019B002BF1D1154B00221A60124B1B681A
:101D6400002B0CD001230293114B4FF080525A6088
:101D740040BFBFF34F8F00BFBFF36F8F00BFFEF7AD
:101D840017FF029B184605B05DF804FB0011002004
:101D9400F8450000D810002098100020E010002022
:101DA4002C10002028100020EC100020E810002047
:101DB40000ED00E082B0034B1B680193019B1846C1
:101DC40002B07047DC10002000B583B001900B4BCB
:101DD4001A68019B1A440A4B1B689A4204D90949A0
:101DE40040F6C91001F013F8044B1A68019B134420
:101DF400024A136000BF03B05DF804FBDC1000204E
:101E0400F8100020F845000000B587B000230593C2
:101E1400454B1B68002B77D1444B1B68013304935B
:101E2400424A049B1360049B002B1AD1404B1B684D
:101E34001B68002B04D03F4940F6332000F0E7FF35
:101E44003B4B1B6803933C4B1B68394A13603A4A6B
:101E5400039B1360394B1B680133384A136000F04D
:101E6400D1FA374B1B68049A9A4252D3304B1B6801
:101E74001B68002B01D1012300E00023002B04D0B8
:101E84002F4B4FF0FF321A6043E0294B1B68DB688D
:101E9400DB680293029B5B680193049A019B9A425C
:101EA40003D2274A019B136033E0029B0433184694
:101EB400FEF7F2FC029B9B6A002B04D0029B1833B2
:101EC4001846FEF7E9FC029BDB6A01229A401D4B8F
:101ED4001B6813431B4A1360029BDA6A13469B0078
:101EE40013449B00184A1A44029B043319461046B3
:101EF400FEF77FFC029BDA6A144B1B68DB6A9A428A
:101F0400B4D301230593B1E7114B1B680133104A85
:101F14001360104B1B68002B01D001230593059B14
:101F2400184607B05DF804FB00110020DC10002007
:101F340090100020F845000094100020F0100020BC
:101F4400F8100020E01000202C10002028100020A1
:101F5400E8100020EC10002000B585B0244B1B686D
:101F6400002B03D0234B01221A603DE0214B0022B9
:101F74001A60214B1B680193019B002B01D1202384
:101F840003E0019BB3FA83F3DBB2C3F11F030393B2
:101F94001A49039A13469B0013449B000B441B6885
:101FA400002B04D116494FF4356000F030FF039A3A
:101FB40013469B0013449B00104A13440293029B54
:101FC4005B685A68029B5A60029B5A68029B0833FA
:101FD4009A4204D1029B5B685A68029B5A60029B36
:101FE4005B68DB68074A136000BF05B05DF804FB5B
:101FF40000110020EC100020E01000202C10002024
:10200400F84500002810002000B583B0019000912D
:10201400019B002B04D10A494FF4366000F0F7FE0F
:10202400084B1B68183319460198FEF701FC01217F
:10203400009800F09BFA00BF03B05DF804FB00BFFA
:10204400F84500002810002000B585B003900291E7
:102054000192039B002B04D10C4940F68B3000F015
:10206400D6FE0B4B1B68183319460398FEF7C1FBC9
:10207400019B002B02D04FF0FF3302930199029889
:1020840000F074FA00BF05B05DF804FBF8450000E9
:102094002810002000B585B00190019BDB68DB6847
:1020A4000293029B002B04D1234940F6BB3000F07D
:1020B400AEFE029B18331846FEF7EEFB1F4B1B685F
:1020C400002B1CD1029B04331846FEF7E5FB029B50
:1020D400DB6A01229A401A4B1B681343184A1360A7
:1020E400029BDA6A13469B0013449B00154A1A4468
:1020F400029B043319461046FEF77BFB05E0029B66
:10210400183319461048FEF774FB029BDA6A0F4B2A
:102114001B68DB6A9A4205D9012303930C4B012205
:102124001A6001E00023039300F06CF9039B184646
:1021340005B05DF804FB00BFF84500000011002065
:10214400E01000202C1000209810002028100020FF
:10215400EC10002082B00190054B1A68019B1A60B4
:10216400044B1A68019B5A6000BF02B0704700BF5D
:10217400F0100020DC10002000B587B00190009121
:10218400019B002B04D1254940F6264000F03FFE78
:10219400009B002B04D1214940F6274000F037FE74
:1021A400FEF7E0FC1E4B1B680493019B5B68049ADA
:1021B400D31A0393009B1B68B3F1FF3F02D10023A2
:1021C400059323E0019B1A68164B1B689A4207D0BB
:1021D400019B5B68049A9A4202D30123059315E09C
:1021E400009B1B68039A9A420BD2009B1A68039BBC
:1021F400D21A009B1A600198FFF7ACFF00230593E5
:1022040004E0009B00221A6001230593FEF7D0FC32
:10221400059B184607B05DF804FB00BFF8450000B5
:10222400DC100020F0100020024B01221A6000BFD5
:10223400704700BFEC10002000B585B0019000F09D
:10224400A5F8174B1B68012B0AD9164B4FF0805287
:102254005A6040BFBFF34F8F00BFBFF36F8F00BF03
:10226400FFF7D8FC0390039B012BE8D9FFF7C8FCC8
:102274000D4B1A680D4B1B689A4204D20C4940F668
:10228400EE4000F0C4FDFFF7C5FC0390039B012B57
:1022940002D90398FEF744FEFFF7F2FCCFE700BF34
:1022A4002C10002000ED00E0F8100020DC100020CD
:1022B400F845000082B00123009301238DF8073014
:1022C4000F4B1B68002B03D000238DF8073012E05E
:1022D4000C4B1B68002B03D000238DF807300AE059
:1022E400094B1A68094B1968009BCB1A9A4202D110
:1022F40002238DF807309DF80730184602B0704766
:1023040098100020EC100020C4100020D8100020E9
:1023140000B583B0002301930CE0019A13469B009F
:1023240013449B00114A13441846FEF73FFA019BDD
:1023340001330193019B022BEFD90D48FEF736FAC6
:102344000C48FEF733FA0C48FEF730FA0B48FEF758
:102354002DFA0B48FEF72AFA0A4B054A1A600A4B73
:10236400044A1A6000BF03B05DF804FB2C1000207F
:10237400681000207C10002098100020AC10002071
:10238400C4100020901000209410002000B583B0E9
:1023940019E0FEF7E7FB104BDB68DB680193019B58
:1023A40004331846FEF778FA0C4B1B68013B0B4AC2
:1023B40013600B4B1B68013B094A1360FEF7F8FBE3
:1023C400019800F00FF8064B1B68002BE1D100BF09
:1023D40000BF03B05DF804FBAC100020D81000204F
:1023E400C010002000B583B00190019B1B6B184600
:1023F400FEF7CCF90198FEF7C9F900BF03B05DF808
:1024040004FB000082B00D4B1B681B68002B01D13C
:10241400012300E00023002B04D0094B4FF0FF32CE
:102424001A6008E0054B1B68DB68DB680193019BBD
:102434005B68034A136000BF02B07047901000202D
:10244400F810002082B00A4B1B68002B02D1012334
:10245400019308E0074B1B68002B02D10223019370
:1024640001E000230193019B184602B0704700BFAE
:10247400E41000200011002000B585B00190019BFC
:10248400029300230393019B002B62D0334B1B6800
:10249400029A9A4204D0324940F63B7000F0B7FCED
:1024A400029BDB6B002B04D12D4940F63C7000F0FD
:1024B400AEFC029BDB6B5A1E029BDA63029BDA6A58
:1024C400029B9B6B9A4244D0029BDB6B002B40D156
:1024D400029B04331846FEF7DFF90346002B15D19F
:1024E400029BDA6A1F4913469B0013449B000B446A
:1024F4001B68002B0AD1029BDB6A012202FA03F358
:10250400DA43194B1B681340174A1360029B9A6BFA
:10251400029BDA62029BDB6AC3F10302029B9A61AB
:10252400029BDB6A01229A400F4B1B6813430E4A3D
:102534001360029BDA6A13469B0013449B00094A0A
:102544001A44029B043319461046FEF752F901233C
:102554000393039B184605B05DF804FB2810002084
:10256400F84500002C100020E010002000B585B0D4
:1025740001900091284B1B680393284B1B6804337C
:102584001846FEF789F90346002B0BD1234B1B6831
:10259400DB6A012202FA03F3DA43214B1B6813407E
:1025A4001F4A1360019BB3F1FF3F0AD1009B002B2C
:1025B40007D01A4B1B68043319461A48FEF719F959
:1025C40026E0039A019B13440293144B1B68029A5E
:1025D4005A60029A039B9A4209D2134B1A680F4B12
:1025E4001B68043319461046FEF722F910E00F4B1E
:1025F4001A680A4B1B68043319461046FEF718F98B
:102604000B4B1B68029A9A4202D2094A029B13603E
:1026140000BF05B05DF804FBDC100020281000208A
:10262400E0100020C410002094100020901000201E
:10263400F810002000B585B00023039300F0CAFA17
:102644000D4B1B68002B0AD00C4B01930223009303
:10265400002350220A490B48FFF72BF90390039BF0
:10266400002B04D108494FF4887000F0D0FB039B81
:10267400184605B05DF804FB341100203811002021
:1026840080460000292800008846000000B589B073
:1026940005900491039202932820FEF733F80790E3
:1026A400079B002B09D0079B01930A9B0093029B75
:1026B400039A0499059800F005F8079B184609B099
:1026C4005DF804FB00B585B003900291019200937C
:1026D400029B002B04D1114940F2691000F097FBD2
:1026E400079B002B15D000F075FA079B039A1A601C
:1026F400079B029A9A61079B019ADA61079B009AE9
:102704001A62079B069A5A62079B04331846FEF71F
:1027140068F800BF05B05DF804FB00BF8846000000
:1027240000B58BB0039002910192009300230993AA
:10273400039B002B04D11B4940F2831000F067FB7C
:10274400194B1B68002B27D0029B0593019B069312
:10275400039B0793029B052B16DCFFF773FE0346CE
:10276400022B08D1104B186805A900230C9AFEF718
:102774001BFD099010E00C4B186805A900230022EA
:10278400FEF712FD099007E0074B186805A900231E
:10279400009AFEF7E9FD0990099B18460BB05DF815
:1027A40004FB00BF884600003411002000B587B048
:1027B40003900291194B1B68DB68DB680593059B4A
:1027C40004331846FEF768F8059BDB69012B1CD11E
:1027D400059B9A69039BD118039B029A059800F004
:1027E400BDF80346002B10D0002300930023039A66
:1027F40000210598FFF794FF0490049B002B04D15B
:10280400074940F2E51000F002FB059B5B6A05985E
:10281400984700BF07B05DF804FB00BF2C110020EF
:102824008846000000B585B0019002AB184600F060
:1028340057F80390029B1946039800F003F800F040
:10284400CFF8F2E700B585B001900091FFF7D8F911
:1028540002AB184600F064F80390029B002B32D1BF
:10286400009B002B0AD1019A039B9A4206D8FFF7DA
:1028740007FA03990198FFF799FF27E0009B002BC3
:1028840008D0144B1B681B68002B0CBF01230023CA
:10289400DBB20093104B1868019A039BD31A009A79
:1028A4001946FEF7D3FFFFF7EBF90346002B0DD1D2
:1028B4000A4B4FF080525A6040BFBFF34F8F00BFA6
:1028C400BFF36F8F02E0FFF7DBF9FFE700BF05B04E
:1028D4005DF804FB301100203411002000ED00E00D
:1028E40084B001900D4B1B681B68002B0CBF0123A7
:1028F4000023DBB21A46019B1A60019B1B68002B64
:1029040005D1064B1B68DB681B68039301E00023B9
:102914000393039B184604B0704700BF2C1100209A
:1029240000B585B00190FFF745FA03900A4B1B6888
:10293400039A9A4205D200F0F1F8019B01221A6031
:1029440002E0019B00221A60034A039B1360039B6D
:10295400184605B05DF804FB3C11002000B587B0B3
:10296400039002910192009300230593039B029A22
:102974005A60039B039A1A61029A019B9A4212D8E5
:10298400019A009BD21A039B9B699A4202D30123AA
:1029940005931BE0104B1A68039B04331946104639
:1029A400FDF746FF12E0019A009B9A4206D2029A72
:1029B400009B9A4202D30123059307E0074B1A6850
:1029C400039B043319461046FDF732FF059B184656
:1029D40007B05DF804FB00BF301100202C1100206B
:1029E40000B58DB086E0049B002B12DA04AB0433EF
:1029F4000B930B9B002B04D146494FF4317000F02C
:102A040006FA0B9B1B680B9A50680B9A9268114646
:102A14009847049B002B6DDB069B0A930A9B5B691A
:102A2400002B04D00A9B04331846FDF735FF03AB93
:102A34001846FFF775FF0990049B092B59D801A28A
:102A440052F823F0712A0000712A0000712A000054
:102A5400F92A0000C32A0000EF2A0000712A0000AE
:102A6400712A0000F92A0000C32A0000059A0A9B73
:102A74009B69D118059B099A0A98FFF76FFF0346D3
:102A8400002B37D00A9B5B6A0A9898470A9BDB693C
:102A9400012B2FD1059A0A9B9B691A4400230093AA
:102AA400002300210A98FFF73BFE0890089B002BA7
:102AB40020D1184940F2FE2000F0A9F91AE0059A45
:102AC4000A9B9A610A9B9B69002B04D1114940F22D
:102AD400153000F09CF90A9B9A69099BD118099B4F
:102AE400099A0A98FFF73AFF04E00A98FDF74EFEA8
:102AF40000E000BF084B1B6804A900221846FEF73B
:102B0400A5FC0346002B7FF46EAF00BF00BF0DB0E1
:102B14005DF804FB884600003411002000B589B03C
:102B24003FE0294B1B68DB681B680693264B1B6838
:102B3400DB68DB680593059B04331846FDF7ACFEA0
:102B4400059B5B6A05989847059BDB69012B28D197
:102B5400059B9B69069A13440493049A069B9A4224
:102B64000ED9059B049A5A60059B059A1A61164B67
:102B74001A68059B043319461046FDF759FE10E008
:102B8400002300930023069A00210598FFF7C8FD4F
:102B94000390039B002B04D10C4940F26F3000F0EA
:102BA40036F9094B1B681B68002BBAD1064B1B680E
:102BB4000793074B1B68044A1360054A079B13607D
:102BC40000BF09B05DF804FB2C110020884600000A
:102BD4003011002008B5FDF7C5FF134B1B68002B0F
:102BE4001DD11248FDF7E2FD1148FDF7DFFD114B41
:102BF4000E4A1A60104B0E4A1A600022102120203F
:102C0400FEF77AFA0346084A1360074B1B68002B49
:102C140005D0054B1B6809491846FEF7F3FDFDF77F
:102C2400C7FF00BF08BD00BF3411002004110020FD
:102C3400181100202C11002030110020084700003A
:102C440086B003900291019201238DF817309DF80C
:102C54001730204A039B13601E4A029B53601D4A8F
:102C6400019B9360039B44F20102934212D0039BA5
:102C740044F20202934220D1019B164AD360154BC1
:102C8400DB681B68134A9361124BDB685B68114A6B
:102C9400D36112E0019B0F4A13610E4B1B699B68C1
:102CA4000C4A53610B4B1B691B680A4A9361094B1D
:102CB4001B695B68074AD36100BF72B600BF00BFDF
:102CC4009DF81730DBB2002BFAD162B600BF00BF0B
:102CD40006B070474011002000B583B00290009107
:102CE400019244F2010071466A4600F003F803B011
:102CF40000BD00BF00B587B003900291019272B687
:102D040000BF039B44F20102934207D0039B44F2A9
:102D14000202934205D1019B059303E0019B0493B6
:102D240000E000BF074B1B6803F00103002B00D039
:102D340000BE019A02990398FFF782FF00BF07B013
:102D44005DF804FBF0ED00E072B600BF034B1B68B6
:102D54000133024A136000BF704700BF60110020B6
:102D6400064B1B68013B054A1360044B1B68002B90
:102D740001D162B600BF00BF704700BF60110020E0
:102D840000B583B0019000F025F80346012B03D071
:102D94000449432000F03BF8FFF7D6FF00BF03B01F
:102DA4005DF804FB1047000000B583B003468DF8BE
:102DB400073000F00FF80346012B03D004495120DB
:102DC40000F025F8FFF7CCFF00BF03B05DF804FB6B
:102DD4001047000084B0EFF305830193019BC3F314
:102DE40008030393039B002B0DD1EFF3148300938B
:102DF400009B0293029B03F00103002B0CBF0123F1
:102E04000023DBB200E00123184604B0704700B58C
:102E140085B003460091ADF80630BDF80630029344
:102E2400009B039302AB1A46002144F20200FFF711
:102E340061FF00BF05B05DF804FB0000044BD3F84C
:102E44000034002B14BF01230023DBB21846704763
:102E54000000014000B583B000230193144B1B789C
:102E6400002B02D08523019314E0114B00229A60B9
:102E74000F4B00225A600E4B00221A610C4B0022A9
:102E8400DA600C4800F01CFA019000F03FFA084B9D
:102E940001221A70FFF7D2FF0346002B02D0044B25
:102EA40001229A70019B184603B05DF804FB00BF31
:102EB40064110020FD2F000084B001900091019B5B
:102EC4001B68039306E0039A009B9A420DD0039B70
:102ED4001B680393039B002BF5D1019B1A68009B8D
:102EE4001A60019B009A1A6000E000BF04B07047AA
:102EF40084B00190019B1B680393039B002B03D0B8
:102F0400039B1A68019B1A60039B184604B0704720
:102F140000B583B00190224B1B78002B03D12149CB
:102F2400F620FFF774FF1E4B9B78DBB2002B12D008
:102F3400019B002B03D0019B5B6801209847002074
:102F4400FFF71EFF164BDB680133154AD3600020E0
:102F5400FFF72AFF17E00020FFF712FF019B002B69
:102F640003D001991048FFF7A7FF0D4BDB68002B36
:102F740001D100F0DFF90A4BDB680133084AD36062
:102F84000020FFF711FF064BDB68002B04D1054935
:102F94004FF48970FFF73BFF00BF03B05DF804FBFB
:102FA400641100209C4700007411002000B585B016
:102FB40003468DF807309DF80730002B02D10C4BE7
:102FC400039301E00B4B03930398FFF791FF0290E7
:102FD400029B002B06D0029B5B689DF807201046DD
:102FE4009847F1E700BF00BF05B05DF804FB00BFE0
:102FF4006C1100207411002000B583B003468DF8D5
:1030040007309DF80730002B05D10A4B01225A7076
:103014000020FFF7CBFF9DF80730012B05D1054BAE
:1030240001229A700120FFF7C1FF00BF03B05DF8D1
:1030340004FB00BF6411002082B003468DF8073002
:103044009DF90730002B0CDB9DF8073003F01F02BD
:1030540005499DF907305B09012000FA02F241F8A5
:10306400232000BF02B0704700E100E082B00346B5
:1030740000918DF807309DF90730002B0ADB009B87
:10308400DAB20C499DF907305201D2B20B4483F8ED
:1030940000230BE0009BDAB207499DF8073003F0E8
:1030A4000F03043B5201D2B20B441A7600BF02B0A4
:1030B400704700BF00E100E000ED00E082B0019045
:1030C400019B1B0B5BB2184602B0704700B583B07E
:1030D40003460A468DF8073013468DF806309DF8EE
:1030E4000630072B03D908496B20FFF790FE9DF8A3
:1030F40006209DF9073011461846FFF7B7FF00BFB9
:1031040003B05DF804FB00BF2048000000B583B0A5
:1031140003468DF807309DF907301846FFF78CFFFA
:1031240000BF03B05DF804FB82B003468DF807309E
:103134000F4A9DF90730002B00DA1F335B115BB295
:1031440052F823209DF90730594203F01F0301F080
:103154001F0158BF4B425BB222FA03F303F0010391
:10316400002B14BF01230023DBB2184602B07047C2
:1031740000E100E082B001904FF08042019BC2F870
:10318400043300BF02B0704782B001904FF0804218
:10319400019BC2F8083300BF02B0704782B00346F7
:1031A4008DF807309DF8073003F1804301221A603F
:1031B40000BF02B0704784B00346ADF80630BDF8D6
:1031C400063003F1804300221A60BDF8063003F193
:1031D40080431B680393039B00BF04B0704782B015
:1031E4000346ADF80630BDF8063003F180431B6892
:1031F400002B14BF01230023DBB2184602B0704732
:1032040082B001904FF08042019BC2F8183500BF94
:1032140002B0704700B583B006238DF807304FF035
:103224008040FFF74BFF03461846FFF77DFF034638
:1032340083F00103DBB2002B13D04FF08040FFF783
:103244003DFF03461A469DF8073019461046FFF71E
:103254003DFF4FF08040FFF731FF03461846FFF76C
:1032640055FF00BF03B05DF804FB000084B0124BAF
:10327400DB680393104A039B43F08073D3600F4BC6
:103284001B6802930D4A029B43F0010313600B4B2E
:103294005B68019300BF094B5A68019BD31AB3F5CD
:1032A4000A5FF8D3054A029B1360034A039BD36069
:1032B40000BF04B0704700BFF0ED00E0001000E074
:1032C40000B585B00190019B002B03D10D49A420CA
:1032D400FFF79DFD002303930B4B1B79002B02D0BA
:1032E4008523039308E0084A019B1360064B0122DF
:1032F4001A71054B00225A71039B184605B05DF8FC
:1033040004FB00BF504800007811002008B5074BAB
:103314001B79002B03D10649BD20FFF778FDFFF789
:1033240079FF0120FFF76CFF00BF08BD7811002072
:103334005048000008B50B4B1B79002B03D10A49F8
:10334400EA20FFF764FD4FF48270FFF734FF022098
:10335400FFF710FFFFF78AFF0820FFF71FFF00BFEA
:1033640008BD00BF781100205048000008B54FF494
:103374008070FFF734FF0346002B14D04FF48070A5
:10338400FFF719FF0120FFF7FFFE114B5B7983F074
:103394000103DBB2002B06D00D4B01225A710C4BFA
:1033A4001B68002098474FF48270FFF718FF03460C
:1033B400002B0AD04FF48270FFF7FDFE0220FFF7C6
:1033C400E3FE034B1B680120984700BF08BD00BF04
:1033D4007811002000B583B00346ADF80630BDF87F
:1033E4000630184600F026F803461B68012B0CBF74
:1033F40001230023DBB2184603B05DF804FB00B5DB
:1034040085B00346ADF80630BDF80630184600F026
:1034140011F803461A4600231360BDF80630184617
:1034240000F008F803461B680393039B00BF05B034
:103434005DF804FB82B00346ADF80630BDF80630F3
:1034440003F1804303F5C043184602B070470000FF
:1034540082B00190034BD3F80423019B1340184618
:1034640002B070470060004082B00190054A019BA1
:1034740003F5A27352F823301B0A03F01F03184606
:1034840002B070470060004082B00190064A019B80
:1034940003F5A27352F823301B0C03F00303DBB2D1
:1034A400184602B0704700BF0060004000B583B00A
:1034B4000190019B1B68184600F095F80346002B09
:1034C40004D105494FF4F670FFF7A1FC4FF0A04377
:1034D400184603B05DF804FB0449000000B585B04C
:1034E40001900B468DF8033001AB1846FFF7DEFF61
:1034F4000390019A039B02F5E07253F82230019A7B
:1035040023F44031039B02F5E07243F82210019A40
:10351400039B02F5E07253F822109DF803301B045C
:10352400019A1943039B02F5E07243F8221000BF8D
:1035340005B05DF804FB00B585B0019001AB1846F9
:10354400FFF7B4FF0390019A039B02F5E07253F86E
:1035540022301B0C03F00303DBB2184605B05DF800
:1035640004FB86B00390029101924FF0A0430493B0
:10357400039B059319E0059B9B0018336B4453F898
:10358400083CD3F82025019B1A60059B9B00183347
:103594006B4453F8083C019A1268C3F82025019B38
:1035A40004330193059B01330593039A029B13444F
:1035B400059A9A42DFD300BF00BF06B0704700B53A
:1035C40085B0019001AB1846FFF770FF0390019B93
:1035D400012202FA03F31A46039BC3F8202500BF15
:1035E40005B05DF804FB84B00190019B5B09029374
:1035F40000230393029B002B03D14FF0FF3303936B
:1036040000BF019B03F01F030193039A019B22FA5D
:1036140003F303F00103002B14BF01230023DBB2E7
:10362400184604B0704784B001900091009B039346
:10363400019BDB080293019B03F007030193012222
:10364400019B02FA03F30399029A0A441278134085
:10365400184604B07047000082B00190044A019BF0
:103664001344303393F90030184602B0704700BF5A
:103674008011002082B00190034A019B52F823304C
:10368400184602B0704700BF8011002084B001903A
:10369400074A019B1344503393F900308DF80F30DF
:1036A4009DF80F3023F0C003184604B0704700BFE4
:1036B4008011002084B00190074A019B13445033C9
:1036C40093F900308DF80F309DF80F309B09DBB271
:1036D400184604B0704700BF8011002000B585B0C3
:1036E4000190019A01210020FFF73BFF002303937F
:1036F4000BE0039B9B00019A13441B68002B01D031
:10370400012306E0039B01330393039B002BF0D0BA
:103714000023184605B05DF804FB000000B587B02F
:103724000190002305935BE0344A059B1344503316
:1037340093F90030B3F1FF3F4ED00598FFF7A6FF91
:10374400049001990498FFF76EFF0346002B44D0C0
:103754000598FFF7AFFF03468DF80F300498FFF785
:10376400EAFE03468DF80E309DF80E30022B01D18F
:10377400032300E002238DF80D309DF80D30194627
:103784000498FFF7ABFE0498FFF719FF0498FFF7BE
:1037940063FF03461846FFF76DFF0290029B002B60
:1037A4001BD09DF80F30032B0FD09DF80E30022B49
:1037B40003D19DF80F30012B07D09DF80E30032B59
:1037C4000BD19DF80F30022B07D19DF80F20029BDF
:1037D40011460498984700E000BF059B0133059308
:1037E400059B032BA0D90198FFF778FF0346002B14
:1037F40097D100BF00BF07B05DF804FB8011002023
:1038040000B589B000230793002300934FF480731D
:10381400ADF81630012304930023069321E0BDF88C
:1038240016301846FFF7D6FD0346002B0ED0049839
:10383400FFF70EFE0346002B08D0BDF816301846DD
:10384400FFF7DDFD079A049B13430793049B5B007A
:103854000493BDF816300433ADF81630069B0133DB
:103864000693069B072BDAD94FF4BE70FFF7B2FD1F
:103874000346002B0DD04FF4BE70FFF7C0FD079B2D
:1038840043F0004307936B461A4601210020FFF7DB
:1038940068FE079BDBB2002B29D00123049300238D
:1038A400069321E0049A079B1340002B16D0069838
:1038B400FFF7DAFD03900698FFF7E6FD03468DF85F
:1038C4000B300698FFF7D6FE0190019B002B05D024
:1038D4009DF80B20019B114603989847049B5B00BD
:1038E4000493069B01330693069B072BDAD9079BA7
:1038F400002B03DA6B461846FFF710FF00BF09B030
:103904005DF804FB00B583B001900020FCF796FE3F
:10391400C820FEF7FFF8F8E700B583B00190012056
:10392400FCF78CFE00BF03B05DF804FB10B584B057
:10393400FFF790FA0390039B0293029B002B04D0A1
:10394400194A6B210298FFF7C7F90120FCF7C4FE5E
:10395400164B01930223009300234FF482721449FF
:103964001448FDF7A6FF144B0093002301224FF4E3
:103974007A711248FEF78AFE0346114A1360104B0F
:103984001C68FEF717FA0246002300930023012166
:103994002046FEF7C5FE0B4B1B690A4A43F004039D
:1039A4001361FEF7E9F8FEE7B8490000DC110020D6
:1039B400404A0000093900001D390000484A00004F
:1039C400E011002000ED00E0BFF34F8F00BF064B75
:1039D400DB6803F4E0620449044B1343CB60BFF398
:1039E4004F8F00BF00BFFDE700ED00E00400FA05C3
:1039F40082B01D4B1B68B3F1FF3F0AD11B4B1B6800
:103A0400DBB201931A4B1B681B0903F00F030093ED
:103A140005E0154B1B680193164B1B680093019B33
:103A2400062B1DD1009B033B042B17D801A252F88F
:103A340023F000BF4D3A0000513A0000553A00000F
:103A4400593A00005D3A000001230AE0012308E02E
:103A5400012306E0012304E0012302E0012300E046
:103A64000023184602B0704730010010E00F00F048
:103A7400E80F00F03401001082B0174B1B68DBB272
:103A84000193164B1B681B0903F00F030093019B62
:103A9400062B1DD1009B033B042B17D801A252F81F
:103AA40023F000BFBD3A0000C13A0000C53A00004F
:103AB400C93A0000CD3A000001230AE0002308E0DF
:103AC400002306E0002304E0002302E0002300E0DA
:103AD4000023184602B07047E00F00F0E80F00F032
:103AE40082B01D4B1B68B3F1FF3F0AD11B4B1B680F
:103AF400DBB201931A4B1B681B0903F00F030093FD
:103B040005E0154B1B680193164B1B680093019B42
:103B1400062B1DD1009B033B042B17D801A252F89E
:103B240023F000BF3D3B0000413B0000453B00004B
:103B3400493B00004D3B000001230AE0012308E05B
:103B4400012306E0012304E0012302E0012300E055
:103B54000023184602B0704730010010E00F00F057
:103B6400E80F00F03401001082B0174B1B68DBB281
:103B74000193164B1B681B0903F00F030093019B71
:103B8400062B1DD1009B033B042B17D801A252F82E
:103B940023F000BFAD3B0000B13B0000B53B00008B
:103BA400B93B0000BD3B000001230AE0002308E00C
:103BB400002306E0002304E0002302E0002300E0E9
:103BC4000023184602B07047E00F00F0E80F00F041
:103BD40082B01D4B1B68B3F1FF3F0AD11B4B1B681E
:103BE400DBB201931A4B1B681B0903F00F0300930C
:103BF40005E0154B1B680193164B1B680093019B52
:103C0400062B1DD1009B033B042B17D801A252F8AD
:103C140023F000BF2D3C0000313C0000353C000087
:103C2400393C00003D3C000001230AE0012308E088
:103C3400012306E0012304E0012302E0012300E064
:103C44000023184602B0704730010010E00F00F066
:103C5400E80F00F03401001082B0174B1B68DBB290
:103C64000193164B1B681B0903F00F030093019B80
:103C7400062B1DD1009B033B042B17D801A252F83D
:103C840023F000BF9D3C0000A13C0000A53C0000C7
:103C9400A93C0000AD3C000001230AE0002308E039
:103CA400002306E0002304E0002302E0002300E0F8
:103CB4000023184602B07047E00F00F0E80F00F050
:103CC40082B0174B1B68DBB20193164B1B681B09B0
:103CD40003F00F030093019B062B1DD1009B033BB4
:103CE400042B17D801A252F823F000BF053D0000B1
:103CF400093D00000D3D0000113D0000153D000090
:103D040001230AE0002308E0002306E0002304E086
:103D1400002302E0002300E00023184602B07047AD
:103D2400E00F00F0E80F00F082B01D4B1B68B3F108
:103D3400FF3F0AD11B4B1B68DBB201931A4B1B6874
:103D44001B0903F00F03009305E0154B1B68019357
:103D5400164B1B680093019B062B1DD1009B033B54
:103D6400042B17D801A252F823F000BF853D0000B0
:103D7400893D00008D3D0000913D0000953D00000F
:103D840000230AE0002308E0012306E0012304E005
:103D9400012302E0012300E00023184602B070472B
:103DA40030010010E00F00F0E80F00F034010010C3
:103DB40082B01D4B1B68B3F1FF3F0AD11B4B1B683C
:103DC400DBB201931A4B1B681B0903F00F0300932A
:103DD40005E0154B1B680193164B1B680093019B70
:103DE400062B1DD1009B033B042B17D801A252F8CC
:103DF40023F000BF0D3E0000113E0000153E000000
:103E0400193E00001D3E000001230AE0012308E0E2
:103E1400012306E0012304E0012302E0012300E082
:103E24000023184602B0704730010010E00F00F084
:103E3400E80F00F03401001082B01D4B1B68B3F191
:103E4400FF3F0AD11B4B1B68DBB201931A4B1B6863
:103E54001B0903F00F03009305E0154B1B68019346
:103E6400164B1B680093019B062B1DD1009B033B43
:103E7400042B17D801A252F823F000BF953E00008E
:103E8400993E00009D3E0000A13E0000A53E0000BA
:103E940001230AE0012308E0012306E0012304E0F2
:103EA400012302E0012300E00023184602B070471A
:103EB40030010010E00F00F0E80F00F034010010B2
:103EC40082B0154B1B680193144B1B680093019B34
:103ED400062B1DD1009B033B042B17D801A252F8DB
:103EE40023F000BFFD3E0000013F0000053F00003D
:103EF400093F00000D3F000000230AE0002308E012
:103F0400002306E0012304E0012302E0012300E092
:103F14000023184602B0704730010010340100102D
:103F240082B0154B1B680193144B1B680093019BD3
:103F3400062B1DD1009B033B042B17D801A252F87A
:103F440023F000BF5D3F0000613F0000653F0000BB
:103F5400693F00006D3F000000230AE0002308E0F1
:103F6400002306E0002304E0012302E0012300E033
:103F74000023184602B070473001001034010010CD
:103F840008B5FFF7CDFF0346002B07D04FF01023F1
:103F94004FF08042D3F80832C2F8583500BF08BD4C
:103FA40000BF044BD3F80034002BFAD000BF00BF8D
:103FB400704700BF00E0014000B583B00190054A9E
:103FC400019BC2F80435FFF7EBFF00BF03B05DF8B7
:103FD40004FB00BF00E00140024B034A1A6000BF2B
:103FE400704700BF000000200090D00308B5FFF721
:103FF400FFFC0346002B06D0964B1B681B0A964A0F
:1040040003F01F031360FFF737FD0346002B02D0B4
:10401400924B934A1A60FFF763FD0346002B06D0C8
:10402400904B1B685B0B904A03F007031360FFF788
:104034009BFD0346002B05D08C4BDB688B4A23F099
:104044008073D360FFF7C4FD0346002B0ED04FF0FE
:1040540080430022C3F80C214FF080430022C3F8B0
:1040640010214FF080430022C3F83825FFF7F4FDF8
:104074000346002B02D07E4B03221A60FFF720FE7A
:104084000346002B0BD07B4B05221A607A4B01228E
:104094001A607A4B00221A60794B3F221A60FFF7AC
:1040A40043FE0346002B76D04FF08053754AD3F875
:1040B4000434C2F820354FF08053724AD3F80834E0
:1040C400C2F824354FF080536E4AD3F80C34C2F84A
:1040D40028354FF080536B4AD3F81034C2F82C358E
:1040E4004FF08053674AD3F81434C2F830354FF098
:1040F4008053644AD3F81834C2F834354FF08053EF
:10410400604AD3F81C34C2F840354FF080535D4AFE
:10411400D3F82034C2F844354FF08053594AD3F8C9
:104124002434C2F848354FF08053564AD3F8283423
:10413400C2F84C354FF08053524AD3F82C34C2F8AD
:1041440050354FF080534F4AD3F83034C2F85435C9
:104154004FF080534B4AD3F83434C2F860354FF0F3
:104164008053484AD3F83834C2F864354FF080534A
:10417400444AD3F83C34C2F868354FF08053414A7E
:10418400D3F84034C2F86C354FF080533D4AD3F82D
:104194004434C2F87035FFF70BFE0346002B05D0FC
:1041A400394B1B68394A03F04F031360FFF744FE91
:1041B4000346002B0DD04FF08043D3F8003403F0B6
:1041C4000103002B05D04FF080436FF00102C3F8C8
:1041D4000024FFF775FE0346002B05D02C4B1B680B
:1041E4002B4A43F4806313602A4BD3F88830294A5E
:1041F40043F47003C2F88830BFF34F8F00BFBFF39E
:104204006F8F00BFFFF7BCFE4FF01023D3F80032CE
:10421400002B05DB4FF01023D3F80432002B15DA02
:104224000120FFF7C9FE4FF010231522C3F8002226
:10423400FFF7B6FE4FF010231522C3F80422FFF750
:10424400AFFE0020FFF7B8FEFFF7BEFBFFF7C4FE8A
:1042540000BF08BD240300104035014074C007406E
:104264000DF0ADBA440200103C050040F0ED00E052
:10427400A0050040105600408856004018560040E3
:104284001456004000C0004058020010E40E0040E4
:104294003C17004000ED00E0082938BF70470022B9
:1042A400C0E9002141F2E411C2F200010860704744
:1042B4005AB3844690EA01039B071FD1830707D0B2
:1042C40011F8013B00F8013B013AF7D11CE08446A8
:1042D400203A09D32DE9F007B1E8F807A0E8F80778
:1042E400203AF9D2BDE8F0071C3205D451F8043B5A
:1042F40040F8043B043AF9D2043205D011F8013BEA
:1043040000F8013B013AF9D16046704700220B00E6
:1043140011001A0084465AB3830704D000F8011B25
:10432400013AF9D124E0C9B241EA012141EA01414B
:10433400202A11D3203A2DE9F0030B460C460D46F2
:104344000E460F4688468946A0E8FA03203AFBD277
:10435400BDE8F00320320BD0042A05D340F8041B37
:10436400043A05D0042AF9D200F8011B013AFBD122
:0443740060467047E8
:104378002E2E2F2E2E2F2E2E2F2E2E2F2E2E2F2E50
:104388002E2F6D6F64756C65732F6E7266782F684B
:10439800616C2F6E72665F6770696F2E680000002F
:1043A800433A5C55736572735C54796C65725C440E
:1043B8006F63756D656E74735C436F64655C52659D
:1043C800705863656C5C6E726635323833322D65B1
:1043D8006D6265646465642D6170706C6963617495
:1043E800696F6E5C6E5246355F53444B5F31372EB2
:1043F800312E305F646464653536305C636F6D7090
:104408006F6E656E74735C626F617264735C626F09
:10441800617264732E630000181F111406071013CD
:10442800433A5C55736572735C54796C65725C448D
:104438006F63756D656E74735C436F64655C52651C
:10444800705863656C5C6E726635323833322D6530
:104458006D6265646465642D6170706C6963617414
:10446800696F6E5C6E5246355F53444B5F31372E31
:10447800312E305F646464653536305C6578746508
:10448800726E616C5C6672656572746F735C736F73
:10449800757263655C706F727461626C655C4D65A2
:1044A8006D4D616E675C686561705F312E630000F9
:1044B800433A5C55736572735C54796C65725C44FD
:1044C8006F63756D656E74735C436F64655C52658C
:1044D800705863656C5C6E726635323833322D65A0
:1044E8006D6265646465642D6170706C6963617484
:1044F800696F6E5C6E5246355F53444B5F31372EA1
:10450800312E305F646464653536305C6578746577
:10451800726E616C5C6672656572746F735C706FE5
:10452800727461626C655C434D5349535C6E72668C
:1045380035325C706F72745F636D7369732E6300DC
:104548002E2E2F2E2E2F2E2E2F2E2E2F2E2E2F2E7E
:104558002E2F6D6F64756C65732F6E7266782F6879
:10456800616C2F6E72665F7274632E6800000000C3
:10457800433A5C55736572735C54796C65725C443C
:104588006F63756D656E74735C436F64655C5265CB
:10459800705863656C5C6E726635323833322D65DF
:1045A8006D6265646465642D6170706C69636174C3
:1045B800696F6E5C6E5246355F53444B5F31372EE0
:1045C800312E305F646464653536305C65787465B7
:1045D800726E616C5C6672656572746F735C736F22
:1045E800757263655C71756575652E630000000002
:1045F800433A5C55736572735C54796C65725C44BC
:104608006F63756D656E74735C436F64655C52654A
:10461800705863656C5C6E726635323833322D655E
:104628006D6265646465642D6170706C6963617442
:10463800696F6E5C6E5246355F53444B5F31372E5F
:10464800312E305F646464653536305C6578746536
:10465800726E616C5C6672656572746F735C736FA1
:10466800757263655C7461736B732E630000000080
:1046780049444C4500000000546D72205376630095
:10468800433A5C55736572735C54796C65725C442B
:104698006F63756D656E74735C436F64655C5265BA
:1046A800705863656C5C6E726635323833322D65CE
:1046B8006D6265646465642D6170706C69636174B2
:1046C800696F6E5C6E5246355F53444B5F31372ECF
:1046D800312E305F646464653536305C65787465A6
:1046E800726E616C5C6672656572746F735C736F11
:1046F800757263655C74696D6572732E6300000082
:10470800546D725100000000433A5C557365727332
:104718005C54796C65725C446F63756D656E747317
:104728005C436F64655C5265705863656C5C6E725F
:104738006635323833322D656D6265646465642D83
:104748006170706C69636174696F6E5C6E52463536
:104758005F53444B5F31372E312E305F646464659C
:104768003536305C636F6D706F6E656E74735C6C3C
:1047780069627261726965735C7574696C5C617099
:10478800705F7574696C5F706C6174666F726D2EA2
:1047980063000000433A5C55736572735C54796C2E
:1047A80065725C446F63756D656E74735C436F64AA
:1047B800655C5265705863656C5C6E72663532383C
:1047C80033322D656D6265646465642D6170706C4B
:1047D80069636174696F6E5C6E5246355F53444B12
:1047E8005F31372E312E305F646464653536305C56
:1047F800696E746567726174696F6E5C6E726678F3
:104808005C6C65676163795C6E72665F6472765F23
:10481800636C6F636B2E63002E2E2F2E2E2F2E2E81
:104828002F2E2E2F2E2E2F2E2E2F696E7465677227
:104838006174696F6E2F6E7266782F6E7266785F1C
:10484800676C75652E680000433A5C557365727332
:104858005C54796C65725C446F63756D656E7473D6
:104868005C436F64655C5265705863656C5C6E721E
:104878006635323833322D656D6265646465642D42
:104888006170706C69636174696F6E5C6E524635F5
:104898005F53444B5F31372E312E305F646464655B
:1048A8003536305C6D6F64756C65735C6E726678F6
:1048B8005C647269766572735C7372635C6E72664F
:1048C800785F636C6F636B2E630000002E2E2F2EB3
:1048D8002E2F2E2E2F2E2E2F2E2E2F2E2E2F696E70
:1048E800746567726174696F6E2F6E7266782F6E69
:1048F8007266785F676C75652E6800002E2E2F2E05
:104908002E2F2E2E2F2E2E2F2E2E2F2E2E2F6D6F3A
:1049180064756C65732F6E7266782F68616C2F6E84
:1049280072665F6770696F2E68000000433A5C55D5
:10493800736572735C54796C65725C446F63756DF2
:10494800656E74735C436F64655C5265705863652B
:104958006C5C6E726635323833322D656D62656413
:104968006465642D6170706C69636174696F6E5CF5
:104978006E5246355F53444B5F31372E312E305FD0
:10498800646464653536305C6D6F64756C65735C42
:104998006E7266785C647269766572735C73726352
:1049A8005C6E7266785F6770696F74652E6300006D
:1049B800433A5C55736572735C54796C65725C44F8
:1049C8006F63756D656E74735C436F64655C526587
:1049D800705863656C5C6E726635323833322D659B
:1049E8006D6265646465642D6170706C696361747F
:1049F800696F6E5C6E5246355F53444B5F31372E9C
:104A0800312E305F646464653536305C6578616D7D
:104A1800706C65735C7065726970686572616C5CF6
:104A2800626C696E6B795F6672656572746F735CD0
:104A38006D61696E2E6300004C4544300000000033
:054A48004C4544310063
:044A50000090D003FF
:04000003000003896D
:00000001FF
